{
  "contractName": "Web3Football",
  "abi": [
    {
      "inputs": [
        {
          "internalType": "uint64",
          "name": "subscriptionId",
          "type": "uint64"
        }
      ],
      "stateMutability": "nonpayable",
      "type": "constructor"
    },
    {
      "inputs": [
        {
          "internalType": "address",
          "name": "have",
          "type": "address"
        },
        {
          "internalType": "address",
          "name": "want",
          "type": "address"
        }
      ],
      "name": "OnlyCoordinatorCanFulfill",
      "type": "error"
    },
    {
      "anonymous": false,
      "inputs": [
        {
          "indexed": true,
          "internalType": "address",
          "name": "owner",
          "type": "address"
        },
        {
          "indexed": true,
          "internalType": "address",
          "name": "approved",
          "type": "address"
        },
        {
          "indexed": true,
          "internalType": "uint256",
          "name": "tokenId",
          "type": "uint256"
        }
      ],
      "name": "Approval",
      "type": "event"
    },
    {
      "anonymous": false,
      "inputs": [
        {
          "indexed": true,
          "internalType": "address",
          "name": "owner",
          "type": "address"
        },
        {
          "indexed": true,
          "internalType": "address",
          "name": "operator",
          "type": "address"
        },
        {
          "indexed": false,
          "internalType": "bool",
          "name": "approved",
          "type": "bool"
        }
      ],
      "name": "ApprovalForAll",
      "type": "event"
    },
    {
      "anonymous": false,
      "inputs": [
        {
          "indexed": true,
          "internalType": "address",
          "name": "from",
          "type": "address"
        },
        {
          "indexed": true,
          "internalType": "address",
          "name": "to",
          "type": "address"
        }
      ],
      "name": "OwnershipTransferRequested",
      "type": "event"
    },
    {
      "anonymous": false,
      "inputs": [
        {
          "indexed": true,
          "internalType": "address",
          "name": "from",
          "type": "address"
        },
        {
          "indexed": true,
          "internalType": "address",
          "name": "to",
          "type": "address"
        }
      ],
      "name": "OwnershipTransferred",
      "type": "event"
    },
    {
      "anonymous": false,
      "inputs": [
        {
          "indexed": false,
          "internalType": "uint256",
          "name": "requestId",
          "type": "uint256"
        },
        {
          "indexed": false,
          "internalType": "uint256[]",
          "name": "randomWords",
          "type": "uint256[]"
        }
      ],
      "name": "RequestFulfilled",
      "type": "event"
    },
    {
      "anonymous": false,
      "inputs": [
        {
          "indexed": false,
          "internalType": "uint256",
          "name": "requestId",
          "type": "uint256"
        },
        {
          "indexed": false,
          "internalType": "uint32",
          "name": "numWords",
          "type": "uint32"
        }
      ],
      "name": "RequestSent",
      "type": "event"
    },
    {
      "anonymous": false,
      "inputs": [
        {
          "indexed": true,
          "internalType": "address",
          "name": "from",
          "type": "address"
        },
        {
          "indexed": true,
          "internalType": "address",
          "name": "to",
          "type": "address"
        },
        {
          "indexed": true,
          "internalType": "uint256",
          "name": "tokenId",
          "type": "uint256"
        }
      ],
      "name": "Transfer",
      "type": "event"
    },
    {
      "anonymous": false,
      "inputs": [
        {
          "indexed": false,
          "internalType": "uint8",
          "name": "shoot_counter",
          "type": "uint8"
        },
        {
          "indexed": false,
          "internalType": "uint8",
          "name": "Team1_Lvl",
          "type": "uint8"
        },
        {
          "indexed": false,
          "internalType": "uint8",
          "name": "Team2_Lvl",
          "type": "uint8"
        }
      ],
      "name": "testi",
      "type": "event"
    },
    {
      "inputs": [
        {
          "internalType": "uint256",
          "name": "",
          "type": "uint256"
        }
      ],
      "name": "Shoot_Detail",
      "outputs": [
        {
          "internalType": "uint8",
          "name": "shoot_no",
          "type": "uint8"
        },
        {
          "internalType": "uint8",
          "name": "team1_lvl",
          "type": "uint8"
        },
        {
          "internalType": "uint8",
          "name": "team2_lvl",
          "type": "uint8"
        },
        {
          "internalType": "bool",
          "name": "select_interface",
          "type": "bool"
        },
        {
          "internalType": "uint8",
          "name": "selected_interface",
          "type": "uint8"
        },
        {
          "internalType": "bool",
          "name": "shoot_completed",
          "type": "bool"
        },
        {
          "internalType": "enum Web3Football.shoot_winner",
          "name": "Winner_playerType",
          "type": "uint8"
        },
        {
          "internalType": "enum Web3Football.team_shoot_winner",
          "name": "ShootWinner_Team",
          "type": "uint8"
        }
      ],
      "stateMutability": "view",
      "type": "function",
      "constant": true
    },
    {
      "inputs": [],
      "name": "acceptOwnership",
      "outputs": [],
      "stateMutability": "nonpayable",
      "type": "function"
    },
    {
      "inputs": [
        {
          "internalType": "address",
          "name": "to",
          "type": "address"
        },
        {
          "internalType": "uint256",
          "name": "tokenId",
          "type": "uint256"
        }
      ],
      "name": "approve",
      "outputs": [],
      "stateMutability": "nonpayable",
      "type": "function"
    },
    {
      "inputs": [
        {
          "internalType": "uint256",
          "name": "",
          "type": "uint256"
        }
      ],
      "name": "availableCards",
      "outputs": [
        {
          "internalType": "uint256",
          "name": "id",
          "type": "uint256"
        },
        {
          "internalType": "uint8",
          "name": "level",
          "type": "uint8"
        }
      ],
      "stateMutability": "view",
      "type": "function",
      "constant": true
    },
    {
      "inputs": [
        {
          "internalType": "uint256",
          "name": "",
          "type": "uint256"
        }
      ],
      "name": "availableGKCards",
      "outputs": [
        {
          "internalType": "uint256",
          "name": "id",
          "type": "uint256"
        },
        {
          "internalType": "uint8",
          "name": "level",
          "type": "uint8"
        }
      ],
      "stateMutability": "view",
      "type": "function",
      "constant": true
    },
    {
      "inputs": [
        {
          "internalType": "address",
          "name": "owner",
          "type": "address"
        }
      ],
      "name": "balanceOf",
      "outputs": [
        {
          "internalType": "uint256",
          "name": "",
          "type": "uint256"
        }
      ],
      "stateMutability": "view",
      "type": "function",
      "constant": true
    },
    {
      "inputs": [
        {
          "internalType": "uint256",
          "name": "",
          "type": "uint256"
        }
      ],
      "name": "cards",
      "outputs": [
        {
          "internalType": "uint256",
          "name": "id",
          "type": "uint256"
        },
        {
          "internalType": "uint8",
          "name": "level",
          "type": "uint8"
        }
      ],
      "stateMutability": "view",
      "type": "function",
      "constant": true
    },
    {
      "inputs": [
        {
          "internalType": "uint256",
          "name": "tokenId",
          "type": "uint256"
        }
      ],
      "name": "getApproved",
      "outputs": [
        {
          "internalType": "address",
          "name": "",
          "type": "address"
        }
      ],
      "stateMutability": "view",
      "type": "function",
      "constant": true
    },
    {
      "inputs": [
        {
          "internalType": "address",
          "name": "owner",
          "type": "address"
        },
        {
          "internalType": "address",
          "name": "operator",
          "type": "address"
        }
      ],
      "name": "isApprovedForAll",
      "outputs": [
        {
          "internalType": "bool",
          "name": "",
          "type": "bool"
        }
      ],
      "stateMutability": "view",
      "type": "function",
      "constant": true
    },
    {
      "inputs": [
        {
          "internalType": "address",
          "name": "",
          "type": "address"
        }
      ],
      "name": "joinStatus",
      "outputs": [
        {
          "internalType": "bool",
          "name": "",
          "type": "bool"
        }
      ],
      "stateMutability": "view",
      "type": "function",
      "constant": true
    },
    {
      "inputs": [],
      "name": "lastRequestId",
      "outputs": [
        {
          "internalType": "uint256",
          "name": "",
          "type": "uint256"
        }
      ],
      "stateMutability": "view",
      "type": "function",
      "constant": true
    },
    {
      "inputs": [],
      "name": "name",
      "outputs": [
        {
          "internalType": "string",
          "name": "",
          "type": "string"
        }
      ],
      "stateMutability": "view",
      "type": "function",
      "constant": true
    },
    {
      "inputs": [],
      "name": "owner",
      "outputs": [
        {
          "internalType": "address",
          "name": "",
          "type": "address"
        }
      ],
      "stateMutability": "view",
      "type": "function",
      "constant": true
    },
    {
      "inputs": [
        {
          "internalType": "uint256",
          "name": "tokenId",
          "type": "uint256"
        }
      ],
      "name": "ownerOf",
      "outputs": [
        {
          "internalType": "address",
          "name": "",
          "type": "address"
        }
      ],
      "stateMutability": "view",
      "type": "function",
      "constant": true
    },
    {
      "inputs": [
        {
          "internalType": "address",
          "name": "",
          "type": "address"
        },
        {
          "internalType": "uint256",
          "name": "",
          "type": "uint256"
        }
      ],
      "name": "playerActiveCards",
      "outputs": [
        {
          "internalType": "uint256",
          "name": "id",
          "type": "uint256"
        },
        {
          "internalType": "uint8",
          "name": "level",
          "type": "uint8"
        }
      ],
      "stateMutability": "view",
      "type": "function",
      "constant": true
    },
    {
      "inputs": [
        {
          "internalType": "address",
          "name": "",
          "type": "address"
        }
      ],
      "name": "playerActiveGKCard",
      "outputs": [
        {
          "internalType": "uint256",
          "name": "id",
          "type": "uint256"
        },
        {
          "internalType": "uint8",
          "name": "level",
          "type": "uint8"
        }
      ],
      "stateMutability": "view",
      "type": "function",
      "constant": true
    },
    {
      "inputs": [
        {
          "internalType": "address",
          "name": "",
          "type": "address"
        },
        {
          "internalType": "uint256",
          "name": "",
          "type": "uint256"
        }
      ],
      "name": "playerInactiveCards",
      "outputs": [
        {
          "internalType": "uint256",
          "name": "id",
          "type": "uint256"
        },
        {
          "internalType": "uint8",
          "name": "level",
          "type": "uint8"
        }
      ],
      "stateMutability": "view",
      "type": "function",
      "constant": true
    },
    {
      "inputs": [
        {
          "internalType": "address",
          "name": "",
          "type": "address"
        }
      ],
      "name": "playerPoints",
      "outputs": [
        {
          "internalType": "uint256",
          "name": "",
          "type": "uint256"
        }
      ],
      "stateMutability": "view",
      "type": "function",
      "constant": true
    },
    {
      "inputs": [],
      "name": "playerState",
      "outputs": [
        {
          "internalType": "uint8",
          "name": "",
          "type": "uint8"
        }
      ],
      "stateMutability": "view",
      "type": "function",
      "constant": true
    },
    {
      "inputs": [
        {
          "internalType": "uint256",
          "name": "",
          "type": "uint256"
        }
      ],
      "name": "randomNumbers",
      "outputs": [
        {
          "internalType": "uint256",
          "name": "",
          "type": "uint256"
        }
      ],
      "stateMutability": "view",
      "type": "function",
      "constant": true
    },
    {
      "inputs": [
        {
          "internalType": "uint256",
          "name": "requestId",
          "type": "uint256"
        },
        {
          "internalType": "uint256[]",
          "name": "randomWords",
          "type": "uint256[]"
        }
      ],
      "name": "rawFulfillRandomWords",
      "outputs": [],
      "stateMutability": "nonpayable",
      "type": "function"
    },
    {
      "inputs": [
        {
          "internalType": "uint256",
          "name": "",
          "type": "uint256"
        }
      ],
      "name": "requestIds",
      "outputs": [
        {
          "internalType": "uint256",
          "name": "",
          "type": "uint256"
        }
      ],
      "stateMutability": "view",
      "type": "function",
      "constant": true
    },
    {
      "inputs": [],
      "name": "roundNumber",
      "outputs": [
        {
          "internalType": "uint8",
          "name": "",
          "type": "uint8"
        }
      ],
      "stateMutability": "view",
      "type": "function",
      "constant": true
    },
    {
      "inputs": [],
      "name": "round_counter",
      "outputs": [
        {
          "internalType": "uint8",
          "name": "",
          "type": "uint8"
        }
      ],
      "stateMutability": "view",
      "type": "function",
      "constant": true
    },
    {
      "inputs": [
        {
          "internalType": "uint256",
          "name": "",
          "type": "uint256"
        }
      ],
      "name": "s_requests",
      "outputs": [
        {
          "internalType": "bool",
          "name": "fulfilled",
          "type": "bool"
        },
        {
          "internalType": "bool",
          "name": "exists",
          "type": "bool"
        },
        {
          "internalType": "bool",
          "name": "didWin",
          "type": "bool"
        }
      ],
      "stateMutability": "view",
      "type": "function",
      "constant": true
    },
    {
      "inputs": [
        {
          "internalType": "address",
          "name": "from",
          "type": "address"
        },
        {
          "internalType": "address",
          "name": "to",
          "type": "address"
        },
        {
          "internalType": "uint256",
          "name": "tokenId",
          "type": "uint256"
        }
      ],
      "name": "safeTransferFrom",
      "outputs": [],
      "stateMutability": "nonpayable",
      "type": "function"
    },
    {
      "inputs": [
        {
          "internalType": "address",
          "name": "from",
          "type": "address"
        },
        {
          "internalType": "address",
          "name": "to",
          "type": "address"
        },
        {
          "internalType": "uint256",
          "name": "tokenId",
          "type": "uint256"
        },
        {
          "internalType": "bytes",
          "name": "_data",
          "type": "bytes"
        }
      ],
      "name": "safeTransferFrom",
      "outputs": [],
      "stateMutability": "nonpayable",
      "type": "function"
    },
    {
      "inputs": [
        {
          "internalType": "address",
          "name": "operator",
          "type": "address"
        },
        {
          "internalType": "bool",
          "name": "approved",
          "type": "bool"
        }
      ],
      "name": "setApprovalForAll",
      "outputs": [],
      "stateMutability": "nonpayable",
      "type": "function"
    },
    {
      "inputs": [],
      "name": "shoot_counter",
      "outputs": [
        {
          "internalType": "uint8",
          "name": "",
          "type": "uint8"
        }
      ],
      "stateMutability": "view",
      "type": "function",
      "constant": true
    },
    {
      "inputs": [
        {
          "internalType": "bytes4",
          "name": "interfaceId",
          "type": "bytes4"
        }
      ],
      "name": "supportsInterface",
      "outputs": [
        {
          "internalType": "bool",
          "name": "",
          "type": "bool"
        }
      ],
      "stateMutability": "view",
      "type": "function",
      "constant": true
    },
    {
      "inputs": [],
      "name": "symbol",
      "outputs": [
        {
          "internalType": "string",
          "name": "",
          "type": "string"
        }
      ],
      "stateMutability": "view",
      "type": "function",
      "constant": true
    },
    {
      "inputs": [
        {
          "internalType": "uint256",
          "name": "",
          "type": "uint256"
        }
      ],
      "name": "team1Ratings",
      "outputs": [
        {
          "internalType": "uint8",
          "name": "",
          "type": "uint8"
        }
      ],
      "stateMutability": "view",
      "type": "function",
      "constant": true
    },
    {
      "inputs": [],
      "name": "team1Score",
      "outputs": [
        {
          "internalType": "uint8",
          "name": "",
          "type": "uint8"
        }
      ],
      "stateMutability": "view",
      "type": "function",
      "constant": true
    },
    {
      "inputs": [],
      "name": "team2Score",
      "outputs": [
        {
          "internalType": "uint8",
          "name": "",
          "type": "uint8"
        }
      ],
      "stateMutability": "view",
      "type": "function",
      "constant": true
    },
    {
      "inputs": [
        {
          "internalType": "uint256",
          "name": "tokenId",
          "type": "uint256"
        }
      ],
      "name": "tokenURI",
      "outputs": [
        {
          "internalType": "string",
          "name": "",
          "type": "string"
        }
      ],
      "stateMutability": "view",
      "type": "function",
      "constant": true
    },
    {
      "inputs": [],
      "name": "tossChoice",
      "outputs": [
        {
          "internalType": "uint8",
          "name": "",
          "type": "uint8"
        }
      ],
      "stateMutability": "view",
      "type": "function",
      "constant": true
    },
    {
      "inputs": [
        {
          "internalType": "address",
          "name": "from",
          "type": "address"
        },
        {
          "internalType": "address",
          "name": "to",
          "type": "address"
        },
        {
          "internalType": "uint256",
          "name": "tokenId",
          "type": "uint256"
        }
      ],
      "name": "transferFrom",
      "outputs": [],
      "stateMutability": "nonpayable",
      "type": "function"
    },
    {
      "inputs": [
        {
          "internalType": "address",
          "name": "to",
          "type": "address"
        }
      ],
      "name": "transferOwnership",
      "outputs": [],
      "stateMutability": "nonpayable",
      "type": "function"
    },
    {
      "inputs": [],
      "name": "winOrLoss",
      "outputs": [
        {
          "internalType": "bool",
          "name": "",
          "type": "bool"
        }
      ],
      "stateMutability": "view",
      "type": "function",
      "constant": true
    },
    {
      "inputs": [],
      "name": "initialize_array",
      "outputs": [],
      "stateMutability": "nonpayable",
      "type": "function"
    },
    {
      "inputs": [
        {
          "internalType": "uint8",
          "name": "choice",
          "type": "uint8"
        }
      ],
      "name": "updatePlayerState",
      "outputs": [],
      "stateMutability": "nonpayable",
      "type": "function"
    },
    {
      "inputs": [],
      "name": "roundNumberIncrease",
      "outputs": [],
      "stateMutability": "nonpayable",
      "type": "function"
    },
    {
      "inputs": [
        {
          "internalType": "uint8",
          "name": "choice",
          "type": "uint8"
        }
      ],
      "name": "setPlayerState",
      "outputs": [],
      "stateMutability": "nonpayable",
      "type": "function"
    },
    {
      "inputs": [
        {
          "internalType": "uint8",
          "name": "_tossChoice",
          "type": "uint8"
        }
      ],
      "name": "toss",
      "outputs": [],
      "stateMutability": "nonpayable",
      "type": "function"
    },
    {
      "inputs": [],
      "name": "gameInitialization",
      "outputs": [],
      "stateMutability": "nonpayable",
      "type": "function"
    },
    {
      "inputs": [
        {
          "internalType": "uint8",
          "name": "_shootNumber",
          "type": "uint8"
        },
        {
          "internalType": "uint8",
          "name": "_playerState",
          "type": "uint8"
        },
        {
          "internalType": "address",
          "name": "_from",
          "type": "address"
        }
      ],
      "name": "interface_Selection",
      "outputs": [
        {
          "internalType": "uint8",
          "name": "",
          "type": "uint8"
        }
      ],
      "stateMutability": "view",
      "type": "function",
      "constant": true
    },
    {
      "inputs": [
        {
          "internalType": "uint8",
          "name": "penalty_interface",
          "type": "uint8"
        },
        {
          "internalType": "uint8",
          "name": "user_choice",
          "type": "uint8"
        },
        {
          "internalType": "uint8",
          "name": "_shootNumber",
          "type": "uint8"
        }
      ],
      "name": "penalty_shoot",
      "outputs": [
        {
          "internalType": "bool",
          "name": "res",
          "type": "bool"
        }
      ],
      "stateMutability": "view",
      "type": "function",
      "constant": true
    },
    {
      "inputs": [
        {
          "internalType": "uint8",
          "name": "_team1Score",
          "type": "uint8"
        },
        {
          "internalType": "uint8",
          "name": "_team2Score",
          "type": "uint8"
        },
        {
          "internalType": "uint8",
          "name": "shootNumber",
          "type": "uint8"
        },
        {
          "internalType": "uint8",
          "name": "_playerState",
          "type": "uint8"
        }
      ],
      "name": "round_result_check",
      "outputs": [
        {
          "internalType": "uint8",
          "name": "",
          "type": "uint8"
        }
      ],
      "stateMutability": "pure",
      "type": "function",
      "constant": true
    },
    {
      "inputs": [],
      "name": "update_shoot_counter",
      "outputs": [],
      "stateMutability": "nonpayable",
      "type": "function"
    },
    {
      "inputs": [],
      "name": "update_round_counter",
      "outputs": [],
      "stateMutability": "nonpayable",
      "type": "function"
    },
    {
      "inputs": [],
      "name": "reset",
      "outputs": [],
      "stateMutability": "nonpayable",
      "type": "function"
    },
    {
      "inputs": [],
      "name": "score_team1",
      "outputs": [
        {
          "internalType": "uint8",
          "name": "",
          "type": "uint8"
        }
      ],
      "stateMutability": "view",
      "type": "function",
      "constant": true
    },
    {
      "inputs": [],
      "name": "score_team2",
      "outputs": [
        {
          "internalType": "uint8",
          "name": "",
          "type": "uint8"
        }
      ],
      "stateMutability": "view",
      "type": "function",
      "constant": true
    },
    {
      "inputs": [],
      "name": "requestRandomWords",
      "outputs": [
        {
          "internalType": "uint256",
          "name": "requestId",
          "type": "uint256"
        }
      ],
      "stateMutability": "nonpayable",
      "type": "function"
    },
    {
      "inputs": [
        {
          "internalType": "uint256",
          "name": "_requestId",
          "type": "uint256"
        }
      ],
      "name": "getRequestStatus",
      "outputs": [
        {
          "internalType": "bool",
          "name": "fulfilled",
          "type": "bool"
        },
        {
          "internalType": "uint256[]",
          "name": "randomWords",
          "type": "uint256[]"
        },
        {
          "internalType": "bool",
          "name": "didWin",
          "type": "bool"
        }
      ],
      "stateMutability": "view",
      "type": "function",
      "constant": true
    },
    {
      "inputs": [],
      "name": "getAvailableCards",
      "outputs": [
        {
          "components": [
            {
              "internalType": "uint256",
              "name": "id",
              "type": "uint256"
            },
            {
              "internalType": "uint8",
              "name": "level",
              "type": "uint8"
            }
          ],
          "internalType": "struct Web3Football.Card[]",
          "name": "",
          "type": "tuple[]"
        }
      ],
      "stateMutability": "view",
      "type": "function",
      "constant": true
    },
    {
      "inputs": [],
      "name": "getAvailableGKCards",
      "outputs": [
        {
          "components": [
            {
              "internalType": "uint256",
              "name": "id",
              "type": "uint256"
            },
            {
              "internalType": "uint8",
              "name": "level",
              "type": "uint8"
            }
          ],
          "internalType": "struct Web3Football.Card[]",
          "name": "",
          "type": "tuple[]"
        }
      ],
      "stateMutability": "view",
      "type": "function",
      "constant": true
    },
    {
      "inputs": [
        {
          "internalType": "uint8",
          "name": "_id",
          "type": "uint8"
        },
        {
          "internalType": "uint8",
          "name": "option",
          "type": "uint8"
        }
      ],
      "name": "buyNftCard",
      "outputs": [],
      "stateMutability": "nonpayable",
      "type": "function"
    },
    {
      "inputs": [
        {
          "internalType": "uint8",
          "name": "_id",
          "type": "uint8"
        },
        {
          "internalType": "uint8",
          "name": "option",
          "type": "uint8"
        }
      ],
      "name": "createActiveCard",
      "outputs": [],
      "stateMutability": "nonpayable",
      "type": "function"
    },
    {
      "inputs": [
        {
          "internalType": "address",
          "name": "player",
          "type": "address"
        }
      ],
      "name": "getPlayingCards",
      "outputs": [
        {
          "components": [
            {
              "internalType": "uint256",
              "name": "id",
              "type": "uint256"
            },
            {
              "internalType": "uint8",
              "name": "level",
              "type": "uint8"
            }
          ],
          "internalType": "struct Web3Football.Card[]",
          "name": "",
          "type": "tuple[]"
        }
      ],
      "stateMutability": "view",
      "type": "function",
      "constant": true
    },
    {
      "inputs": [
        {
          "internalType": "address",
          "name": "player",
          "type": "address"
        }
      ],
      "name": "getInactiveCards",
      "outputs": [
        {
          "components": [
            {
              "internalType": "uint256",
              "name": "id",
              "type": "uint256"
            },
            {
              "internalType": "uint8",
              "name": "level",
              "type": "uint8"
            }
          ],
          "internalType": "struct Web3Football.Card[]",
          "name": "",
          "type": "tuple[]"
        }
      ],
      "stateMutability": "view",
      "type": "function",
      "constant": true
    },
    {
      "inputs": [],
      "name": "getJoinStatus",
      "outputs": [
        {
          "internalType": "bool",
          "name": "",
          "type": "bool"
        }
      ],
      "stateMutability": "view",
      "type": "function",
      "constant": true
    },
    {
      "inputs": [],
      "name": "join",
      "outputs": [],
      "stateMutability": "nonpayable",
      "type": "function"
    },
    {
      "inputs": [
        {
          "internalType": "address",
          "name": "winner",
          "type": "address"
        }
      ],
      "name": "wonPoints",
      "outputs": [],
      "stateMutability": "nonpayable",
      "type": "function"
    }
  ],
  "bytecode": "0x60a06040525f60095f6101000a81548160ff021916908360ff1602179055506002600960026101000a81548160ff0219169083600281111562000047576200004662000c9b565b5b02179055505f600b5f6101000a81548160ff021916908360ff1602179055505f600b60016101000a81548160ff021916908360ff1602179055505f600b60026101000a81548160ff021916908360ff1602179055506040518060c00160405280600260ff168152602001600360ff168152602001600260ff168152602001600160ff168152602001600160ff168152602001600260ff16815250600d906006620000f392919062000bd5565b507f474e34a077df58807dbe9c96d3c009b23b3c6d0cce433e59bbf5b34f823bc56c5f1b603a55620f4240603b5f6101000a81548163ffffffff021916908363ffffffff1602179055506003603b60046101000a81548161ffff021916908361ffff1602179055506014603b60066101000a81548163ffffffff021916908363ffffffff16021790555034801562000189575f80fd5b5060405162006dfd38038062006dfd8339818101604052810190620001af919062000d0e565b6040518060400160405280600c81526020017f57656233466f6f7462616c6c00000000000000000000000000000000000000008152506040518060400160405280600281526020017f464300000000000000000000000000000000000000000000000000000000000081525033805f738103b0a8a00be2ddc778e6e7eaa21791cd3646258073ffffffffffffffffffffffffffffffffffffffff1660808173ffffffffffffffffffffffffffffffffffffffff1681525050505f73ffffffffffffffffffffffffffffffffffffffff168273ffffffffffffffffffffffffffffffffffffffff1603620002d9576040517f08c379a0000000000000000000000000000000000000000000000000000000008152600401620002d09062000d9c565b60405180910390fd5b815f806101000a81548173ffffffffffffffffffffffffffffffffffffffff021916908373ffffffffffffffffffffffffffffffffffffffff1602179055505f73ffffffffffffffffffffffffffffffffffffffff168173ffffffffffffffffffffffffffffffffffffffff16146200035e576200035d8162000aa860201b60201c565b5b505050816002908162000372919062001020565b50806003908162000384919062001020565b505050738103b0a8a00be2ddc778e6e7eaa21791cd36462560375f6101000a81548173ffffffffffffffffffffffffffffffffffffffff021916908373ffffffffffffffffffffffffffffffffffffffff16021790555080603760146101000a81548167ffffffffffffffff021916908367ffffffffffffffff1602179055505f60405180604001604052805f8152602001600360ff1681525090505f604051806040016040528060018152602001600360ff1681525090505f604051806040016040528060028152602001600360ff1681525090505f604051806040016040528060038152602001600260ff1681525090505f604051806040016040528060048152602001600260ff1681525090505f604051806040016040528060058152602001600260ff1681525090505f604051806040016040528060068152602001600260ff1681525090505f604051806040016040528060078152602001600260ff1681525090505f604051806040016040528060088152602001600160ff1681525090505f604051806040016040528060098152602001600160ff1681525090505f6040518060400160405280600a8152602001600160ff168152509050603e8b908060018154018082558091505060019003905f5260205f2090600202015f909190919091505f820151815f01556020820151816001015f6101000a81548160ff021916908360ff1602179055505050603e8a908060018154018082558091505060019003905f5260205f2090600202015f909190919091505f820151815f01556020820151816001015f6101000a81548160ff021916908360ff1602179055505050603e89908060018154018082558091505060019003905f5260205f2090600202015f909190919091505f820151815f01556020820151816001015f6101000a81548160ff021916908360ff1602179055505050603e88908060018154018082558091505060019003905f5260205f2090600202015f909190919091505f820151815f01556020820151816001015f6101000a81548160ff021916908360ff1602179055505050603e87908060018154018082558091505060019003905f5260205f2090600202015f909190919091505f820151815f01556020820151816001015f6101000a81548160ff021916908360ff1602179055505050603e86908060018154018082558091505060019003905f5260205f2090600202015f909190919091505f820151815f01556020820151816001015f6101000a81548160ff021916908360ff1602179055505050603e85908060018154018082558091505060019003905f5260205f2090600202015f909190919091505f820151815f01556020820151816001015f6101000a81548160ff021916908360ff1602179055505050603e84908060018154018082558091505060019003905f5260205f2090600202015f909190919091505f820151815f01556020820151816001015f6101000a81548160ff021916908360ff1602179055505050603e83908060018154018082558091505060019003905f5260205f2090600202015f909190919091505f820151815f01556020820151816001015f6101000a81548160ff021916908360ff1602179055505050603e82908060018154018082558091505060019003905f5260205f2090600202015f909190919091505f820151815f01556020820151816001015f6101000a81548160ff021916908360ff1602179055505050603e81908060018154018082558091505060019003905f5260205f2090600202015f909190919091505f820151815f01556020820151816001015f6101000a81548160ff021916908360ff16021790555050505f60405180604001604052805f8152602001600360ff1681525090505f604051806040016040528060018152602001600260ff1681525090505f604051806040016040528060028152602001600260ff1681525090505f604051806040016040528060038152602001600160ff168152509050603f84908060018154018082558091505060019003905f5260205f2090600202015f909190919091505f820151815f01556020820151816001015f6101000a81548160ff021916908360ff1602179055505050603f83908060018154018082558091505060019003905f5260205f2090600202015f909190919091505f820151815f01556020820151816001015f6101000a81548160ff021916908360ff1602179055505050603f82908060018154018082558091505060019003905f5260205f2090600202015f909190919091505f820151815f01556020820151816001015f6101000a81548160ff021916908360ff1602179055505050603f81908060018154018082558091505060019003905f5260205f2090600202015f909190919091505f820151815f01556020820151816001015f6101000a81548160ff021916908360ff16021790555050505050505050505050505050505050505062001172565b3373ffffffffffffffffffffffffffffffffffffffff168173ffffffffffffffffffffffffffffffffffffffff160362000b19576040517f08c379a000000000000000000000000000000000000000000000000000000000815260040162000b109062001152565b60405180910390fd5b8060015f6101000a81548173ffffffffffffffffffffffffffffffffffffffff021916908373ffffffffffffffffffffffffffffffffffffffff1602179055508073ffffffffffffffffffffffffffffffffffffffff165f8054906101000a900473ffffffffffffffffffffffffffffffffffffffff1673ffffffffffffffffffffffffffffffffffffffff167fed8889f560326eb138920d842192f0eb3dd22b4f139c87a2c57538e05bae127860405160405180910390a350565b828054828255905f5260205f2090601f0160209004810192821562000c6b579160200282015f5b8382111562000c3b57835183826101000a81548160ff021916908360ff16021790555092602001926001016020815f0104928301926001030262000bfc565b801562000c695782816101000a81549060ff02191690556001016020815f0104928301926001030262000c3b565b505b50905062000c7a919062000c7e565b5090565b5b8082111562000c97575f815f90555060010162000c7f565b5090565b7f4e487b71000000000000000000000000000000000000000000000000000000005f52602160045260245ffd5b5f80fd5b5f67ffffffffffffffff82169050919050565b62000cea8162000ccc565b811462000cf5575f80fd5b50565b5f8151905062000d088162000cdf565b92915050565b5f6020828403121562000d265762000d2562000cc8565b5b5f62000d358482850162000cf8565b91505092915050565b5f82825260208201905092915050565b7f43616e6e6f7420736574206f776e657220746f207a65726f00000000000000005f82015250565b5f62000d8460188362000d3e565b915062000d918262000d4e565b602082019050919050565b5f6020820190508181035f83015262000db58162000d76565b9050919050565b5f81519050919050565b7f4e487b71000000000000000000000000000000000000000000000000000000005f52604160045260245ffd5b7f4e487b71000000000000000000000000000000000000000000000000000000005f52602260045260245ffd5b5f600282049050600182168062000e3857607f821691505b60208210810362000e4e5762000e4d62000df3565b5b50919050565b5f819050815f5260205f209050919050565b5f6020601f8301049050919050565b5f82821b905092915050565b5f6008830262000eb27fffffffffffffffffffffffffffffffffffffffffffffffffffffffffffffffff8262000e75565b62000ebe868362000e75565b95508019841693508086168417925050509392505050565b5f819050919050565b5f819050919050565b5f62000f0862000f0262000efc8462000ed6565b62000edf565b62000ed6565b9050919050565b5f819050919050565b62000f238362000ee8565b62000f3b62000f328262000f0f565b84845462000e81565b825550505050565b5f90565b62000f5162000f43565b62000f5e81848462000f18565b505050565b5b8181101562000f855762000f795f8262000f47565b60018101905062000f64565b5050565b601f82111562000fd45762000f9e8162000e54565b62000fa98462000e66565b8101602085101562000fb9578190505b62000fd162000fc88562000e66565b83018262000f63565b50505b505050565b5f82821c905092915050565b5f62000ff65f198460080262000fd9565b1980831691505092915050565b5f62001010838362000fe5565b9150826002028217905092915050565b6200102b8262000dbc565b67ffffffffffffffff81111562001047576200104662000dc6565b5b62001053825462000e20565b6200106082828562000f89565b5f60209050601f83116001811462001096575f841562001081578287015190505b6200108d858262001003565b865550620010fc565b601f198416620010a68662000e54565b5f5b82811015620010cf57848901518255600182019150602085019450602081019050620010a8565b86831015620010ef5784890151620010eb601f89168262000fe5565b8355505b6001600288020188555050505b505050505050565b7f43616e6e6f74207472616e7366657220746f2073656c660000000000000000005f82015250565b5f6200113a60178362000d3e565b9150620011478262001104565b602082019050919050565b5f6020820190508181035f8301526200116b816200112c565b9050919050565b608051615c6b620011925f395f81816111f401526112480152615c6b5ff3fe608060405234801561000f575f80fd5b50600436106103ce575f3560e01c80636f2e9fbf116101fd578063b688a36311610118578063dc91697e116100ab578063efb8e1091161007a578063efb8e10914610bf7578063f1b65bdb14610c13578063f2fde38b14610c31578063fc2a88c314610c4d576103ce565b8063dc91697e14610b81578063dd4b23cd14610b9f578063e0c8628914610ba9578063e985e9c514610bc7576103ce565b8063c8cf4378116100e7578063c8cf437814610b1d578063d34c9d4614610b27578063d826f88f14610b45578063d8a4676f14610b4f576103ce565b8063b688a36314610aa9578063b88d4fde14610ab3578063bc173c5f14610acf578063c87b56dd14610aed576103ce565b80638dc1076811610190578063a168fa891161015f578063a168fa8914610a21578063a22cb46514610a53578063a768853814610a6f578063b2f343e614610a8d576103ce565b80638dc10768146109725780638de8a925146109a357806395d89b41146109d35780639b211fc4146109f1576103ce565b806379ba5097116101cc57806379ba5097146108fc57806379e4a5b7146109065780638796ba8c146109245780638da5cb5b14610954576103ce565b80636f2e9fbf1461086157806370a082311461087d57806370d02e9b146108ad57806371f01e0f146108cb576103ce565b806342842e0e116102ed5780635723c7881161028057806361958ca91161024f57806361958ca9146107ae5780636352211e146107e55780636622f6aa146108155780636c7adaa514610845576103ce565b80635723c78814610713578063581eb38c146107435780635ba583871461075f5780635f59d29c14610790576103ce565b8063541a7e4d116102bc578063541a7e4d146106c557806354e52aed146106cf578063557fcdd8146106d9578063567558dc146106f5576103ce565b806342842e0e1461063d5780634e2786fb1461065957806350ace4e5146106775780635257cd9014610695576103ce565b80631fe543e3116103655780632f64bcab116103345780632f64bcab146105a15780632ff285bc146105d15780633564ac9c1461060157806337d179bb1461061f576103ce565b80631fe543e3146105075780632199ea3a1461052357806323b872dd146105545780632874f11a14610570576103ce565b8063081812fc116103a1578063081812fc14610481578063095ea7b3146104b15780630a1aa765146104cd5780631c69d17d146104d7576103ce565b806301ffc9a7146103d257806303c28c5b1461040257806305736bce1461043257806306fdde0314610463575b5f80fd5b6103ec60048036038101906103e79190614190565b610c6b565b6040516103f991906141d5565b60405180910390f35b61041c60048036038101906104179190614221565b610d4c565b6040516104299190614267565b60405180910390f35b61044c60048036038101906104479190614221565b610d75565b60405161045a92919061428f565b60405180910390f35b61046b610db0565b6040516104789190614340565b60405180910390f35b61049b60048036038101906104969190614221565b610e40565b6040516104a8919061439f565b60405180910390f35b6104cb60048036038101906104c691906143e2565b610ec1565b005b6104d5610fd7565b005b6104f160048036038101906104ec919061444a565b611011565b6040516104fe9190614267565b60405180910390f35b610521600480360381019061051c91906145ee565b6111f2565b005b61053d60048036038101906105389190614648565b6112b2565b60405161054b92919061428f565b60405180910390f35b61056e60048036038101906105699190614673565b6112de565b005b61058a600480360381019061058591906143e2565b61133e565b60405161059892919061428f565b60405180910390f35b6105bb60048036038101906105b69190614648565b611384565b6040516105c891906147b6565b60405180910390f35b6105eb60048036038101906105e691906147d6565b611442565b6040516105f891906141d5565b60405180910390f35b610609611574565b6040516106169190614267565b60405180910390f35b610627611586565b60405161063491906141d5565b60405180910390f35b61065760048036038101906106529190614673565b6115d6565b005b6106616115f5565b60405161066e9190614267565b60405180910390f35b61067f611608565b60405161068c9190614267565b60405180910390f35b6106af60048036038101906106aa9190614221565b61161a565b6040516106bc9190614826565b60405180910390f35b6106cd61163a565b005b6106d76119e1565b005b6106f360048036038101906106ee919061483f565b611b5e565b005b6106fd611b7c565b60405161070a91906147b6565b60405180910390f35b61072d60048036038101906107289190614648565b611bfd565b60405161073a91906147b6565b60405180910390f35b61075d60048036038101906107589190614648565b611cbb565b005b61077960048036038101906107749190614221565b611d12565b60405161078792919061428f565b60405180910390f35b610798611d4d565b6040516107a59190614267565b60405180910390f35b6107c860048036038101906107c39190614221565b611d60565b6040516107dc989796959493929190614923565b60405180910390f35b6107ff60048036038101906107fa9190614221565b611e08565b60405161080c919061439f565b60405180910390f35b61082f600480360381019061082a919061499f565b611eb4565b60405161083c9190614267565b60405180910390f35b61085f600480360381019061085a91906149ef565b612051565b005b61087b600480360381019061087691906149ef565b61205f565b005b61089760048036038101906108929190614648565b612073565b6040516108a49190614826565b60405180910390f35b6108b5612127565b6040516108c291906141d5565b60405180910390f35b6108e560048036038101906108e091906143e2565b61213a565b6040516108f392919061428f565b60405180910390f35b610904612180565b005b61090e61230f565b60405161091b91906147b6565b60405180910390f35b61093e60048036038101906109399190614221565b612390565b60405161094b9190614826565b60405180910390f35b61095c6123b0565b604051610969919061439f565b60405180910390f35b61098c60048036038101906109879190614221565b6123d7565b60405161099a92919061428f565b60405180910390f35b6109bd60048036038101906109b89190614648565b612412565b6040516109ca91906141d5565b60405180910390f35b6109db61242f565b6040516109e89190614340565b60405180910390f35b610a0b6004803603810190610a069190614648565b6124bf565b604051610a189190614826565b60405180910390f35b610a3b6004803603810190610a369190614221565b6124d4565b604051610a4a93929190614a2d565b60405180910390f35b610a6d6004803603810190610a689190614a8c565b61251e565b005b610a77612699565b604051610a849190614267565b60405180910390f35b610aa76004803603810190610aa2919061483f565b6126ac565b005b610ab1612746565b005b610acd6004803603810190610ac89190614b7a565b612826565b005b610ad7612888565b604051610ae49190614267565b60405180910390f35b610b076004803603810190610b029190614221565b61289b565b604051610b149190614340565b60405180910390f35b610b256129e4565b005b610b2f612a1c565b604051610b3c9190614267565b60405180910390f35b610b4d612a59565b005b610b696004803603810190610b649190614221565b612ae0565b604051610b7893929190614ca2565b60405180910390f35b610b89612c22565b604051610b969190614267565b60405180910390f35b610ba7612c5f565b005b610bb1612c98565b604051610bbe9190614826565b60405180910390f35b610be16004803603810190610bdc9190614cde565b612f00565b604051610bee91906141d5565b60405180910390f35b610c116004803603810190610c0c919061483f565b612f8e565b005b610c1b612fac565b604051610c289190614267565b60405180910390f35b610c4b6004803603810190610c469190614648565b612fbf565b005b610c55612fd3565b604051610c629190614826565b60405180910390f35b5f7f80ac58cd000000000000000000000000000000000000000000000000000000007bffffffffffffffffffffffffffffffffffffffffffffffffffffffff1916827bffffffffffffffffffffffffffffffffffffffffffffffffffffffff19161480610d3557507f5b5e139f000000000000000000000000000000000000000000000000000000007bffffffffffffffffffffffffffffffffffffffffffffffffffffffff1916827bffffffffffffffffffffffffffffffffffffffffffffffffffffffff1916145b80610d455750610d4482612fd9565b5b9050919050565b600c8160068110610d5b575f80fd5b60209182820401919006915054906101000a900460ff1681565b603e8181548110610d84575f80fd5b905f5260205f2090600202015f91509050805f015490806001015f9054906101000a900460ff16905082565b606060028054610dbf90614d49565b80601f0160208091040260200160405190810160405280929190818152602001828054610deb90614d49565b8015610e365780601f10610e0d57610100808354040283529160200191610e36565b820191905f5260205f20905b815481529060010190602001808311610e1957829003601f168201915b5050505050905090565b5f610e4a82613042565b610e89576040517f08c379a0000000000000000000000000000000000000000000000000000000008152600401610e8090614de9565b60405180910390fd5b60065f8381526020019081526020015f205f9054906101000a900473ffffffffffffffffffffffffffffffffffffffff169050919050565b5f610ecb82611e08565b90508073ffffffffffffffffffffffffffffffffffffffff168373ffffffffffffffffffffffffffffffffffffffff1603610f3b576040517f08c379a0000000000000000000000000000000000000000000000000000000008152600401610f3290614e77565b60405180910390fd5b8073ffffffffffffffffffffffffffffffffffffffff16610f5a6130aa565b73ffffffffffffffffffffffffffffffffffffffff161480610f895750610f8881610f836130aa565b612f00565b5b610fc8576040517f08c379a0000000000000000000000000000000000000000000000000000000008152600401610fbf90614f05565b60405180910390fd5b610fd283836130b1565b505050565b6009600181819054906101000a900460ff1680929190610ff690614f50565b91906101000a81548160ff021916908360ff16021790555050565b5f808590505f859050600a8560ff1611611192575f805f6002886110359190614fa5565b60ff160361108e578360028861104b9190614fd5565b60056110579190615005565b6110619190615039565b9150826002886110719190614fd5565b600561107d9190615005565b6110879190615039565b9050611150565b60028660ff16036110f657836002886110a79190614fd5565b60056110b39190615005565b6110bd9190615039565b91508260016002896110cf9190614fd5565b60056110db9190615005565b6110e59190615005565b6110ef9190615039565b905061114f565b8360016002896111069190614fd5565b60056111129190615005565b61111c9190615005565b6111269190615039565b9150826002886111369190614fd5565b60056111429190615005565b61114c9190615039565b90505b5b8060ff168460ff16111561116b5760019450505050506111ea565b8160ff168360ff1611156111865760029450505050506111ea565b5f9450505050506111ea565b5f6002866111a09190614fa5565b60ff16036111e4578060ff168260ff1611156111c1576001925050506111ea565b8060ff168260ff1610156111da576002925050506111ea565b5f925050506111ea565b5f925050505b949350505050565b7f000000000000000000000000000000000000000000000000000000000000000073ffffffffffffffffffffffffffffffffffffffff163373ffffffffffffffffffffffffffffffffffffffff16146112a457337f00000000000000000000000000000000000000000000000000000000000000006040517f1cf993f400000000000000000000000000000000000000000000000000000000815260040161129b92919061506d565b60405180910390fd5b6112ae8282613167565b5050565b6042602052805f5260405f205f91509050805f015490806001015f9054906101000a900460ff16905082565b6112ef6112e96130aa565b826132c9565b61132e576040517f08c379a000000000000000000000000000000000000000000000000000000000815260040161132590615104565b60405180910390fd5b6113398383836133a5565b505050565b6041602052815f5260405f208181548110611357575f80fd5b905f5260205f2090600202015f9150915050805f015490806001015f9054906101000a900460ff16905082565b606060405f8373ffffffffffffffffffffffffffffffffffffffff1673ffffffffffffffffffffffffffffffffffffffff1681526020019081526020015f20805480602002602001604051908101604052809291908181526020015f905b82821015611437578382905f5260205f2090600202016040518060400160405290815f8201548152602001600182015f9054906101000a900460ff1660ff1660ff1681525050815260200190600101906113e2565b505050509050919050565b5f60018460ff16036114a6575f60016002600a8560ff168154811061146a57611469615122565b5b905f5260205f20015461147d919061514f565b611487919061517f565b9050808460ff160361149c575f91505061156d565b600191505061156d565b60028460ff1603611509575f60016004600a8560ff16815481106114cd576114cc615122565b5b905f5260205f2001546114e0919061514f565b6114ea919061517f565b9050808460ff16036114ff575f91505061156d565b600191505061156d565b60038460ff160361156c575f60016008600a8560ff16815481106115305761152f615122565b5b905f5260205f200154611543919061514f565b61154d919061517f565b9050808460ff1603611562575f91505061156d565b600191505061156d565b5b9392505050565b60095f9054906101000a900460ff1681565b5f60435f3373ffffffffffffffffffffffffffffffffffffffff1673ffffffffffffffffffffffffffffffffffffffff1681526020019081526020015f205f9054906101000a900460ff16905090565b6115f083838360405180602001604052805f815250612826565b505050565b600b60029054906101000a900460ff1681565b600b5f9054906101000a900460ff1681565b600a8181548110611629575f80fd5b905f5260205f20015f915090505481565b60405f3373ffffffffffffffffffffffffffffffffffffffff1673ffffffffffffffffffffffffffffffffffffffff1681526020019081526020015f205f8154811061168957611688615122565b5b905f5260205f2090600202016001015f9054906101000a900460ff16600c5f600681106116b9576116b8615122565b5b602091828204019190066101000a81548160ff021916908360ff16021790555060405f3373ffffffffffffffffffffffffffffffffffffffff1673ffffffffffffffffffffffffffffffffffffffff1681526020019081526020015f2060018154811061172957611728615122565b5b905f5260205f2090600202016001015f9054906101000a900460ff16600c60016006811061175a57611759615122565b5b602091828204019190066101000a81548160ff021916908360ff16021790555060405f3373ffffffffffffffffffffffffffffffffffffffff1673ffffffffffffffffffffffffffffffffffffffff1681526020019081526020015f206002815481106117ca576117c9615122565b5b905f5260205f2090600202016001015f9054906101000a900460ff16600c6002600681106117fb576117fa615122565b5b602091828204019190066101000a81548160ff021916908360ff16021790555060405f3373ffffffffffffffffffffffffffffffffffffffff1673ffffffffffffffffffffffffffffffffffffffff1681526020019081526020015f2060038154811061186b5761186a615122565b5b905f5260205f2090600202016001015f9054906101000a900460ff16600c60036006811061189c5761189b615122565b5b602091828204019190066101000a81548160ff021916908360ff16021790555060405f3373ffffffffffffffffffffffffffffffffffffffff1673ffffffffffffffffffffffffffffffffffffffff1681526020019081526020015f2060048154811061190c5761190b615122565b5b905f5260205f2090600202016001015f9054906101000a900460ff16600c60046006811061193d5761193c615122565b5b602091828204019190066101000a81548160ff021916908360ff16021790555060425f3373ffffffffffffffffffffffffffffffffffffffff1673ffffffffffffffffffffffffffffffffffffffff1681526020019081526020015f206001015f9054906101000a900460ff16600c6005600681106119bf576119be615122565b5b602091828204019190066101000a81548160ff021916908360ff160217905550565b6303227f28600a5f815481106119fa576119f9615122565b5b905f5260205f20018190555063356c1996600a600181548110611a2057611a1f615122565b5b905f5260205f200181905550632d695088600a600281548110611a4657611a45615122565b5b905f5260205f20018190555063279df800600a600381548110611a6c57611a6b615122565b5b905f5260205f2001819055506328582b37600a600481548110611a9257611a91615122565b5b905f5260205f2001819055506303227f28600a600581548110611ab857611ab7615122565b5b905f5260205f20018190555063356c1996600a600681548110611ade57611add615122565b5b905f5260205f200181905550632d695088600a600781548110611b0457611b03615122565b5b905f5260205f20018190555063279df800600a600881548110611b2a57611b29615122565b5b905f5260205f2001819055506328582b37600a600981548110611b5057611b4f615122565b5b905f5260205f200181905550565b80600b60036101000a81548160ff021916908360ff16021790555050565b6060603f805480602002602001604051908101604052809291908181526020015f905b82821015611bf4578382905f5260205f2090600202016040518060400160405290815f8201548152602001600182015f9054906101000a900460ff1660ff1660ff168152505081526020019060010190611b9f565b50505050905090565b606060415f8373ffffffffffffffffffffffffffffffffffffffff1673ffffffffffffffffffffffffffffffffffffffff1681526020019081526020015f20805480602002602001604051908101604052809291908181526020015f905b82821015611cb0578382905f5260205f2090600202016040518060400160405290815f8201548152602001600182015f9054906101000a900460ff1660ff1660ff168152505081526020019060010190611c5b565b505050509050919050565b601460445f8373ffffffffffffffffffffffffffffffffffffffff1673ffffffffffffffffffffffffffffffffffffffff1681526020019081526020015f205f828254611d08919061517f565b9250508190555050565b603f8181548110611d21575f80fd5b905f5260205f2090600202015f91509050805f015490806001015f9054906101000a900460ff16905082565b600960019054906101000a900460ff1681565b600e8160148110611d6f575f80fd5b015f91509050805f015f9054906101000a900460ff1690805f0160019054906101000a900460ff1690805f0160029054906101000a900460ff1690805f0160039054906101000a900460ff1690805f0160049054906101000a900460ff1690805f0160059054906101000a900460ff1690805f0160069054906101000a900460ff1690805f0160079054906101000a900460ff16905088565b5f8060045f8481526020019081526020015f205f9054906101000a900473ffffffffffffffffffffffffffffffffffffffff1690505f73ffffffffffffffffffffffffffffffffffffffff168173ffffffffffffffffffffffffffffffffffffffff1603611eab576040517f08c379a0000000000000000000000000000000000000000000000000000000008152600401611ea290615222565b60405180910390fd5b80915050919050565b5f805f806002600a88611ec79190614fa5565b611ed19190614fd5565b905060028660ff1603611f885760405f8673ffffffffffffffffffffffffffffffffffffffff1673ffffffffffffffffffffffffffffffffffffffff1681526020019081526020015f208160ff1681548110611f3057611f2f615122565b5b905f5260205f2090600202016001015f9054906101000a900460ff169150600d600581548110611f6357611f62615122565b5b905f5260205f2090602091828204019190069054906101000a900460ff16925061200f565b600d8160ff1681548110611f9f57611f9e615122565b5b905f5260205f2090602091828204019190069054906101000a900460ff16915060425f8673ffffffffffffffffffffffffffffffffffffffff1673ffffffffffffffffffffffffffffffffffffffff1681526020019081526020015f206001015f9054906101000a900460ff1692505b8260ff168260ff161115612029576003935050505061204a565b8260ff168260ff1603612042576002935050505061204a565b600193505050505b9392505050565b61205b82826135f5565b5050565b61206f8260ff168260ff1661378c565b5050565b5f8073ffffffffffffffffffffffffffffffffffffffff168273ffffffffffffffffffffffffffffffffffffffff16036120e2576040517f08c379a00000000000000000000000000000000000000000000000000000000081526004016120d9906152b0565b60405180910390fd5b60055f8373ffffffffffffffffffffffffffffffffffffffff1673ffffffffffffffffffffffffffffffffffffffff1681526020019081526020015f20549050919050565b600b60059054906101000a900460ff1681565b6040602052815f5260405f208181548110612153575f80fd5b905f5260205f2090600202015f9150915050805f015490806001015f9054906101000a900460ff16905082565b60015f9054906101000a900473ffffffffffffffffffffffffffffffffffffffff1673ffffffffffffffffffffffffffffffffffffffff163373ffffffffffffffffffffffffffffffffffffffff161461220f576040517f08c379a000000000000000000000000000000000000000000000000000000000815260040161220690615318565b60405180910390fd5b5f805f9054906101000a900473ffffffffffffffffffffffffffffffffffffffff169050335f806101000a81548173ffffffffffffffffffffffffffffffffffffffff021916908373ffffffffffffffffffffffffffffffffffffffff1602179055505f60015f6101000a81548173ffffffffffffffffffffffffffffffffffffffff021916908373ffffffffffffffffffffffffffffffffffffffff1602179055503373ffffffffffffffffffffffffffffffffffffffff168173ffffffffffffffffffffffffffffffffffffffff167f8be0079c531659141344cd1fd0a4f28419497f9722a3daafe3b4186f6b6457e060405160405180910390a350565b6060603e805480602002602001604051908101604052809291908181526020015f905b82821015612387578382905f5260205f2090600202016040518060400160405290815f8201548152602001600182015f9054906101000a900460ff1660ff1660ff168152505081526020019060010190612332565b50505050905090565b6038818154811061239f575f80fd5b905f5260205f20015f915090505481565b5f805f9054906101000a900473ffffffffffffffffffffffffffffffffffffffff16905090565b603d81815481106123e6575f80fd5b905f5260205f2090600202015f91509050805f015490806001015f9054906101000a900460ff16905082565b6043602052805f5260405f205f915054906101000a900460ff1681565b60606003805461243e90614d49565b80601f016020809104026020016040519081016040528092919081815260200182805461246a90614d49565b80156124b55780601f1061248c576101008083540402835291602001916124b5565b820191905f5260205f20905b81548152906001019060200180831161249857829003601f168201915b5050505050905090565b6044602052805f5260405f205f915090505481565b6036602052805f5260405f205f91509050805f015f9054906101000a900460ff1690805f0160019054906101000a900460ff1690806002015f9054906101000a900460ff16905083565b6125266130aa565b73ffffffffffffffffffffffffffffffffffffffff168273ffffffffffffffffffffffffffffffffffffffff1603612593576040517f08c379a000000000000000000000000000000000000000000000000000000000815260040161258a90615380565b60405180910390fd5b8060075f61259f6130aa565b73ffffffffffffffffffffffffffffffffffffffff1673ffffffffffffffffffffffffffffffffffffffff1681526020019081526020015f205f8473ffffffffffffffffffffffffffffffffffffffff1673ffffffffffffffffffffffffffffffffffffffff1681526020019081526020015f205f6101000a81548160ff0219169083151502179055508173ffffffffffffffffffffffffffffffffffffffff166126486130aa565b73ffffffffffffffffffffffffffffffffffffffff167f17307eab39ab6107e8899845ad3d59bd9653f200f220920489ca2b5937696c318360405161268d91906141d5565b60405180910390a35050565b600b60019054906101000a900460ff1681565b80600b60046101000a81548160ff021916908360ff160217905550600b60049054906101000a900460ff1660ff166002600a5f815481106126f0576126ef615122565b5b905f5260205f200154612703919061514f565b03612728576001600b60056101000a81548160ff021916908315150217905550612743565b5f600b60056101000a81548160ff0219169083151502179055505b50565b600160435f3373ffffffffffffffffffffffffffffffffffffffff1673ffffffffffffffffffffffffffffffffffffffff1681526020019081526020015f205f6101000a81548160ff02191690831515021790555060c860445f3373ffffffffffffffffffffffffffffffffffffffff1673ffffffffffffffffffffffffffffffffffffffff1681526020019081526020015f20819055506127e95f60026135f5565b6127f5600860026135f5565b612801600a60026135f5565b61280d600460026135f5565b612819600660026135f5565b6128246001806135f5565b565b6128376128316130aa565b836132c9565b612876576040517f08c379a000000000000000000000000000000000000000000000000000000000815260040161286d90615104565b60405180910390fd5b612882848484846138c9565b50505050565b600b60039054906101000a900460ff1681565b60606128a682613042565b6128e5576040517f08c379a00000000000000000000000000000000000000000000000000000000081526004016128dc9061540e565b60405180910390fd5b5f60085f8481526020019081526020015f20805461290290614d49565b80601f016020809104026020016040519081016040528092919081815260200182805461292e90614d49565b80156129795780601f1061295057610100808354040283529160200191612979565b820191905f5260205f20905b81548152906001019060200180831161295c57829003601f168201915b505050505090505f612989613925565b90505f81510361299d5781925050506129df565b5f825111156129d15780826040516020016129b9929190615466565b604051602081830303815290604052925050506129df565b6129da8461393b565b925050505b919050565b6001600b60029054906101000a900460ff16612a009190615039565b600b60026101000a81548160ff021916908360ff160217905550565b5f6022600960019054906101000a900460ff1660ff1660148110612a4357612a42615122565b5b015f0160019054906101000a900460ff16905090565b5f60095f6101000a81548160ff021916908360ff1602179055505f600b60026101000a81548160ff021916908360ff1602179055505f600b5f6101000a81548160ff021916908360ff1602179055505f600b60016101000a81548160ff021916908360ff1602179055505f600b60036101000a81548160ff021916908360ff160217905550565b5f60605f60365f8581526020019081526020015f205f0160019054906101000a900460ff16612b44576040517f08c379a0000000000000000000000000000000000000000000000000000000008152600401612b3b906154d3565b60405180910390fd5b5f60365f8681526020019081526020015f206040518060800160405290815f82015f9054906101000a900460ff161515151581526020015f820160019054906101000a900460ff1615151515815260200160018201805480602002602001604051908101604052809291908181526020018280548015612be157602002820191905f5260205f20905b815481526020019060010190808311612bcd575b50505050508152602001600282015f9054906101000a900460ff1615151515815250509050805f015181604001518260600151935093509350509193909250565b5f6022600960019054906101000a900460ff1660ff1660148110612c4957612c48615122565b5b015f0160029054906101000a900460ff16905090565b60095f81819054906101000a900460ff1680929190612c7d90614f50565b91906101000a81548160ff021916908360ff16021790555050565b5f60375f9054906101000a900473ffffffffffffffffffffffffffffffffffffffff1673ffffffffffffffffffffffffffffffffffffffff16635d3b1d30603a54603760149054906101000a900467ffffffffffffffff16603b60049054906101000a900461ffff16603b5f9054906101000a900463ffffffff16603b60069054906101000a900463ffffffff166040518663ffffffff1660e01b8152600401612d46959493929190615565565b6020604051808303815f875af1158015612d62573d5f803e3d5ffd5b505050506040513d601f19601f82011682018060405250810190612d8691906155ca565b905060405180608001604052805f151581526020016001151581526020015f67ffffffffffffffff811115612dbe57612dbd6144b2565b5b604051908082528060200260200182016040528015612dec5781602001602082028036833780820191505090505b5081526020016001151581525060365f8381526020019081526020015f205f820151815f015f6101000a81548160ff0219169083151502179055506020820151815f0160016101000a81548160ff0219169083151502179055506040820151816001019080519060200190612e629291906140c4565b506060820151816002015f6101000a81548160ff021916908315150217905550905050603881908060018154018082558091505060019003905f5260205f20015f9091909190915055806039819055507fcc58b13ad3eab50626c6a6300b1d139cd6ebb1688a7cced9461c2f7e762665ee81603b60069054906101000a900463ffffffff16604051612ef59291906155f5565b60405180910390a190565b5f60075f8473ffffffffffffffffffffffffffffffffffffffff1673ffffffffffffffffffffffffffffffffffffffff1681526020019081526020015f205f8373ffffffffffffffffffffffffffffffffffffffff1673ffffffffffffffffffffffffffffffffffffffff1681526020019081526020015f205f9054906101000a900460ff16905092915050565b80600b60036101000a81548160ff021916908360ff16021790555050565b600b60049054906101000a900460ff1681565b612fc76139df565b612fd081613a6e565b50565b60395481565b5f7f01ffc9a7000000000000000000000000000000000000000000000000000000007bffffffffffffffffffffffffffffffffffffffffffffffffffffffff1916827bffffffffffffffffffffffffffffffffffffffffffffffffffffffff1916149050919050565b5f8073ffffffffffffffffffffffffffffffffffffffff1660045f8481526020019081526020015f205f9054906101000a900473ffffffffffffffffffffffffffffffffffffffff1673ffffffffffffffffffffffffffffffffffffffff1614159050919050565b5f33905090565b8160065f8381526020019081526020015f205f6101000a81548173ffffffffffffffffffffffffffffffffffffffff021916908373ffffffffffffffffffffffffffffffffffffffff160217905550808273ffffffffffffffffffffffffffffffffffffffff1661312183611e08565b73ffffffffffffffffffffffffffffffffffffffff167f8c5be1e5ebec7d5bd14f71427d1e84f3dd0314c0f7b2291e5b200ac8c7c3b92560405160405180910390a45050565b60365f8381526020019081526020015f205f0160019054906101000a900460ff166131c7576040517f08c379a00000000000000000000000000000000000000000000000000000000081526004016131be906154d3565b60405180910390fd5b600160365f8481526020019081526020015f205f015f6101000a81548160ff0219169083151502179055508060365f8481526020019081526020015f20600101908051906020019061321a9291906140c4565b505f6002825f8151811061323157613230615122565b5b6020026020010151613243919061514f565b0361327557600160365f8481526020019081526020015f206002015f6101000a81548160ff0219169083151502179055505b80600a908051906020019061328b9291906140c4565b507ffe2e2d779dba245964d4e3ef9b994be63856fd568bf7d3ca9e224755cb1bd54d82826040516132bd92919061561c565b60405180910390a15050565b5f6132d382613042565b613312576040517f08c379a0000000000000000000000000000000000000000000000000000000008152600401613309906156ba565b60405180910390fd5b5f61331c83611e08565b90508073ffffffffffffffffffffffffffffffffffffffff168473ffffffffffffffffffffffffffffffffffffffff16148061338b57508373ffffffffffffffffffffffffffffffffffffffff1661337384610e40565b73ffffffffffffffffffffffffffffffffffffffff16145b8061339c575061339b8185612f00565b5b91505092915050565b8273ffffffffffffffffffffffffffffffffffffffff166133c582611e08565b73ffffffffffffffffffffffffffffffffffffffff161461341b576040517f08c379a000000000000000000000000000000000000000000000000000000000815260040161341290615748565b60405180910390fd5b5f73ffffffffffffffffffffffffffffffffffffffff168273ffffffffffffffffffffffffffffffffffffffff1603613489576040517f08c379a0000000000000000000000000000000000000000000000000000000008152600401613480906157d6565b60405180910390fd5b613494838383613b98565b61349e5f826130b1565b600160055f8573ffffffffffffffffffffffffffffffffffffffff1673ffffffffffffffffffffffffffffffffffffffff1681526020019081526020015f205f8282546134eb91906157f4565b92505081905550600160055f8473ffffffffffffffffffffffffffffffffffffffff1673ffffffffffffffffffffffffffffffffffffffff1681526020019081526020015f205f82825461353f919061517f565b925050819055508160045f8381526020019081526020015f205f6101000a81548173ffffffffffffffffffffffffffffffffffffffff021916908373ffffffffffffffffffffffffffffffffffffffff160217905550808273ffffffffffffffffffffffffffffffffffffffff168473ffffffffffffffffffffffffffffffffffffffff167fddf252ad1be2c89b69c2b068fc378daa952ba7f163c4a11628f55a4df523b3ef60405160405180910390a4505050565b60018160ff160361369c57603f8260ff168154811061361757613616615122565b5b905f5260205f20906002020160425f3373ffffffffffffffffffffffffffffffffffffffff1673ffffffffffffffffffffffffffffffffffffffff1681526020019081526020015f205f820154815f0155600182015f9054906101000a900460ff16816001015f6101000a81548160ff021916908360ff160217905550905050613765565b60028160ff16036137645760405f3373ffffffffffffffffffffffffffffffffffffffff1673ffffffffffffffffffffffffffffffffffffffff1681526020019081526020015f20603e8360ff16815481106136fb576136fa615122565b5b905f5260205f209060020201908060018154018082558091505060019003905f5260205f2090600202015f909190919091505f820154815f0155600182015f9054906101000a900460ff16816001015f6101000a81548160ff021916908360ff16021790555050505b5b61377133603c54613b9d565b603c5f81548092919061378390615827565b91905055505050565b60c860445f3373ffffffffffffffffffffffffffffffffffffffff1673ffffffffffffffffffffffffffffffffffffffff1681526020019081526020015f205f8282546137d991906157f4565b92505081905550600281036138a25760415f3373ffffffffffffffffffffffffffffffffffffffff1673ffffffffffffffffffffffffffffffffffffffff1681526020019081526020015f20603e838154811061383957613838615122565b5b905f5260205f209060020201908060018154018082558091505060019003905f5260205f2090600202015f909190919091505f820154815f0155600182015f9054906101000a900460ff16816001015f6101000a81548160ff021916908360ff16021790555050505b6138ae33603c54613b9d565b603c5f8154809291906138c090615827565b91905055505050565b6138d48484846133a5565b6138e084848484613bba565b61391f576040517f08c379a0000000000000000000000000000000000000000000000000000000008152600401613916906158de565b60405180910390fd5b50505050565b606060405180602001604052805f815250905090565b606061394682613042565b613985576040517f08c379a000000000000000000000000000000000000000000000000000000000815260040161397c9061596c565b60405180910390fd5b5f61398e613925565b90505f8151116139ac5760405180602001604052805f8152506139d7565b806139b684613d3c565b6040516020016139c7929190615466565b6040516020818303038152906040525b915050919050565b5f8054906101000a900473ffffffffffffffffffffffffffffffffffffffff1673ffffffffffffffffffffffffffffffffffffffff163373ffffffffffffffffffffffffffffffffffffffff1614613a6c576040517f08c379a0000000000000000000000000000000000000000000000000000000008152600401613a63906159d4565b60405180910390fd5b565b3373ffffffffffffffffffffffffffffffffffffffff168173ffffffffffffffffffffffffffffffffffffffff1603613adc576040517f08c379a0000000000000000000000000000000000000000000000000000000008152600401613ad390615a3c565b60405180910390fd5b8060015f6101000a81548173ffffffffffffffffffffffffffffffffffffffff021916908373ffffffffffffffffffffffffffffffffffffffff1602179055508073ffffffffffffffffffffffffffffffffffffffff165f8054906101000a900473ffffffffffffffffffffffffffffffffffffffff1673ffffffffffffffffffffffffffffffffffffffff167fed8889f560326eb138920d842192f0eb3dd22b4f139c87a2c57538e05bae127860405160405180910390a350565b505050565b613bb6828260405180602001604052805f815250613e95565b5050565b5f613bda8473ffffffffffffffffffffffffffffffffffffffff16613eef565b15613d2f578373ffffffffffffffffffffffffffffffffffffffff1663150b7a02613c036130aa565b8786866040518563ffffffff1660e01b8152600401613c259493929190615aac565b6020604051808303815f875af1925050508015613c6057506040513d601f19601f82011682018060405250810190613c5d9190615b0a565b60015b613cdf573d805f8114613c8e576040519150601f19603f3d011682016040523d82523d5f602084013e613c93565b606091505b505f815103613cd7576040517f08c379a0000000000000000000000000000000000000000000000000000000008152600401613cce906158de565b60405180910390fd5b805181602001fd5b63150b7a0260e01b7bffffffffffffffffffffffffffffffffffffffffffffffffffffffff1916817bffffffffffffffffffffffffffffffffffffffffffffffffffffffff191614915050613d34565b600190505b949350505050565b60605f8203613d82576040518060400160405280600181526020017f30000000000000000000000000000000000000000000000000000000000000008152509050613e90565b5f8290505f5b5f8214613db1578080613d9a90615827565b915050600a82613daa9190615b35565b9150613d88565b5f8167ffffffffffffffff811115613dcc57613dcb6144b2565b5b6040519080825280601f01601f191660200182016040528015613dfe5781602001600182028036833780820191505090505b5090505b5f8514613e8957600182613e1691906157f4565b9150600a85613e25919061514f565b6030613e31919061517f565b60f81b818381518110613e4757613e46615122565b5b60200101907effffffffffffffffffffffffffffffffffffffffffffffffffffffffffffff191690815f1a905350600a85613e829190615b35565b9450613e02565b8093505050505b919050565b613e9f8383613f00565b613eab5f848484613bba565b613eea576040517f08c379a0000000000000000000000000000000000000000000000000000000008152600401613ee1906158de565b60405180910390fd5b505050565b5f80823b90505f8111915050919050565b5f73ffffffffffffffffffffffffffffffffffffffff168273ffffffffffffffffffffffffffffffffffffffff1603613f6e576040517f08c379a0000000000000000000000000000000000000000000000000000000008152600401613f6590615baf565b60405180910390fd5b613f7781613042565b15613fb7576040517f08c379a0000000000000000000000000000000000000000000000000000000008152600401613fae90615c17565b60405180910390fd5b613fc25f8383613b98565b600160055f8473ffffffffffffffffffffffffffffffffffffffff1673ffffffffffffffffffffffffffffffffffffffff1681526020019081526020015f205f82825461400f919061517f565b925050819055508160045f8381526020019081526020015f205f6101000a81548173ffffffffffffffffffffffffffffffffffffffff021916908373ffffffffffffffffffffffffffffffffffffffff160217905550808273ffffffffffffffffffffffffffffffffffffffff165f73ffffffffffffffffffffffffffffffffffffffff167fddf252ad1be2c89b69c2b068fc378daa952ba7f163c4a11628f55a4df523b3ef60405160405180910390a45050565b828054828255905f5260205f209081019282156140fe579160200282015b828111156140fd5782518255916020019190600101906140e2565b5b50905061410b919061410f565b5090565b5b80821115614126575f815f905550600101614110565b5090565b5f604051905090565b5f80fd5b5f80fd5b5f7fffffffff0000000000000000000000000000000000000000000000000000000082169050919050565b61416f8161413b565b8114614179575f80fd5b50565b5f8135905061418a81614166565b92915050565b5f602082840312156141a5576141a4614133565b5b5f6141b28482850161417c565b91505092915050565b5f8115159050919050565b6141cf816141bb565b82525050565b5f6020820190506141e85f8301846141c6565b92915050565b5f819050919050565b614200816141ee565b811461420a575f80fd5b50565b5f8135905061421b816141f7565b92915050565b5f6020828403121561423657614235614133565b5b5f6142438482850161420d565b91505092915050565b5f60ff82169050919050565b6142618161424c565b82525050565b5f60208201905061427a5f830184614258565b92915050565b614289816141ee565b82525050565b5f6040820190506142a25f830185614280565b6142af6020830184614258565b9392505050565b5f81519050919050565b5f82825260208201905092915050565b5f5b838110156142ed5780820151818401526020810190506142d2565b5f8484015250505050565b5f601f19601f8301169050919050565b5f614312826142b6565b61431c81856142c0565b935061432c8185602086016142d0565b614335816142f8565b840191505092915050565b5f6020820190508181035f8301526143588184614308565b905092915050565b5f73ffffffffffffffffffffffffffffffffffffffff82169050919050565b5f61438982614360565b9050919050565b6143998161437f565b82525050565b5f6020820190506143b25f830184614390565b92915050565b6143c18161437f565b81146143cb575f80fd5b50565b5f813590506143dc816143b8565b92915050565b5f80604083850312156143f8576143f7614133565b5b5f614405858286016143ce565b92505060206144168582860161420d565b9150509250929050565b6144298161424c565b8114614433575f80fd5b50565b5f8135905061444481614420565b92915050565b5f805f806080858703121561446257614461614133565b5b5f61446f87828801614436565b945050602061448087828801614436565b935050604061449187828801614436565b92505060606144a287828801614436565b91505092959194509250565b5f80fd5b7f4e487b71000000000000000000000000000000000000000000000000000000005f52604160045260245ffd5b6144e8826142f8565b810181811067ffffffffffffffff82111715614507576145066144b2565b5b80604052505050565b5f61451961412a565b905061452582826144df565b919050565b5f67ffffffffffffffff821115614544576145436144b2565b5b602082029050602081019050919050565b5f80fd5b5f61456b6145668461452a565b614510565b9050808382526020820190506020840283018581111561458e5761458d614555565b5b835b818110156145b757806145a3888261420d565b845260208401935050602081019050614590565b5050509392505050565b5f82601f8301126145d5576145d46144ae565b5b81356145e5848260208601614559565b91505092915050565b5f806040838503121561460457614603614133565b5b5f6146118582860161420d565b925050602083013567ffffffffffffffff81111561463257614631614137565b5b61463e858286016145c1565b9150509250929050565b5f6020828403121561465d5761465c614133565b5b5f61466a848285016143ce565b91505092915050565b5f805f6060848603121561468a57614689614133565b5b5f614697868287016143ce565b93505060206146a8868287016143ce565b92505060406146b98682870161420d565b9150509250925092565b5f81519050919050565b5f82825260208201905092915050565b5f819050602082019050919050565b6146f5816141ee565b82525050565b6147048161424c565b82525050565b604082015f82015161471e5f8501826146ec565b50602082015161473160208501826146fb565b50505050565b5f614742838361470a565b60408301905092915050565b5f602082019050919050565b5f614764826146c3565b61476e81856146cd565b9350614779836146dd565b805f5b838110156147a95781516147908882614737565b975061479b8361474e565b92505060018101905061477c565b5085935050505092915050565b5f6020820190508181035f8301526147ce818461475a565b905092915050565b5f805f606084860312156147ed576147ec614133565b5b5f6147fa86828701614436565b935050602061480b86828701614436565b925050604061481c86828701614436565b9150509250925092565b5f6020820190506148395f830184614280565b92915050565b5f6020828403121561485457614853614133565b5b5f61486184828501614436565b91505092915050565b7f4e487b71000000000000000000000000000000000000000000000000000000005f52602160045260245ffd5b600281106148a8576148a761486a565b5b50565b5f8190506148b882614897565b919050565b5f6148c7826148ab565b9050919050565b6148d7816148bd565b82525050565b600281106148ee576148ed61486a565b5b50565b5f8190506148fe826148dd565b919050565b5f61490d826148f1565b9050919050565b61491d81614903565b82525050565b5f610100820190506149375f83018b614258565b614944602083018a614258565b6149516040830189614258565b61495e60608301886141c6565b61496b6080830187614258565b61497860a08301866141c6565b61498560c08301856148ce565b61499260e0830184614914565b9998505050505050505050565b5f805f606084860312156149b6576149b5614133565b5b5f6149c386828701614436565b93505060206149d486828701614436565b92505060406149e5868287016143ce565b9150509250925092565b5f8060408385031215614a0557614a04614133565b5b5f614a1285828601614436565b9250506020614a2385828601614436565b9150509250929050565b5f606082019050614a405f8301866141c6565b614a4d60208301856141c6565b614a5a60408301846141c6565b949350505050565b614a6b816141bb565b8114614a75575f80fd5b50565b5f81359050614a8681614a62565b92915050565b5f8060408385031215614aa257614aa1614133565b5b5f614aaf858286016143ce565b9250506020614ac085828601614a78565b9150509250929050565b5f80fd5b5f67ffffffffffffffff821115614ae857614ae76144b2565b5b614af1826142f8565b9050602081019050919050565b828183375f83830152505050565b5f614b1e614b1984614ace565b614510565b905082815260208101848484011115614b3a57614b39614aca565b5b614b45848285614afe565b509392505050565b5f82601f830112614b6157614b606144ae565b5b8135614b71848260208601614b0c565b91505092915050565b5f805f8060808587031215614b9257614b91614133565b5b5f614b9f878288016143ce565b9450506020614bb0878288016143ce565b9350506040614bc18782880161420d565b925050606085013567ffffffffffffffff811115614be257614be1614137565b5b614bee87828801614b4d565b91505092959194509250565b5f81519050919050565b5f82825260208201905092915050565b5f819050602082019050919050565b5f614c2e83836146ec565b60208301905092915050565b5f602082019050919050565b5f614c5082614bfa565b614c5a8185614c04565b9350614c6583614c14565b805f5b83811015614c95578151614c7c8882614c23565b9750614c8783614c3a565b925050600181019050614c68565b5085935050505092915050565b5f606082019050614cb55f8301866141c6565b8181036020830152614cc78185614c46565b9050614cd660408301846141c6565b949350505050565b5f8060408385031215614cf457614cf3614133565b5b5f614d01858286016143ce565b9250506020614d12858286016143ce565b9150509250929050565b7f4e487b71000000000000000000000000000000000000000000000000000000005f52602260045260245ffd5b5f6002820490506001821680614d6057607f821691505b602082108103614d7357614d72614d1c565b5b50919050565b7f4552433732313a20617070726f76656420717565727920666f72206e6f6e65785f8201527f697374656e7420746f6b656e0000000000000000000000000000000000000000602082015250565b5f614dd3602c836142c0565b9150614dde82614d79565b604082019050919050565b5f6020820190508181035f830152614e0081614dc7565b9050919050565b7f4552433732313a20617070726f76616c20746f2063757272656e74206f776e655f8201527f7200000000000000000000000000000000000000000000000000000000000000602082015250565b5f614e616021836142c0565b9150614e6c82614e07565b604082019050919050565b5f6020820190508181035f830152614e8e81614e55565b9050919050565b7f4552433732313a20617070726f76652063616c6c6572206973206e6f74206f775f8201527f6e6572206e6f7220617070726f76656420666f7220616c6c0000000000000000602082015250565b5f614eef6038836142c0565b9150614efa82614e95565b604082019050919050565b5f6020820190508181035f830152614f1c81614ee3565b9050919050565b7f4e487b71000000000000000000000000000000000000000000000000000000005f52601160045260245ffd5b5f614f5a8261424c565b915060ff8203614f6d57614f6c614f23565b5b600182019050919050565b7f4e487b71000000000000000000000000000000000000000000000000000000005f52601260045260245ffd5b5f614faf8261424c565b9150614fba8361424c565b925082614fca57614fc9614f78565b5b828206905092915050565b5f614fdf8261424c565b9150614fea8361424c565b925082614ffa57614ff9614f78565b5b828204905092915050565b5f61500f8261424c565b915061501a8361424c565b9250828203905060ff81111561503357615032614f23565b5b92915050565b5f6150438261424c565b915061504e8361424c565b9250828201905060ff81111561506757615066614f23565b5b92915050565b5f6040820190506150805f830185614390565b61508d6020830184614390565b9392505050565b7f4552433732313a207472616e736665722063616c6c6572206973206e6f74206f5f8201527f776e6572206e6f7220617070726f766564000000000000000000000000000000602082015250565b5f6150ee6031836142c0565b91506150f982615094565b604082019050919050565b5f6020820190508181035f83015261511b816150e2565b9050919050565b7f4e487b71000000000000000000000000000000000000000000000000000000005f52603260045260245ffd5b5f615159826141ee565b9150615164836141ee565b92508261517457615173614f78565b5b828206905092915050565b5f615189826141ee565b9150615194836141ee565b92508282019050808211156151ac576151ab614f23565b5b92915050565b7f4552433732313a206f776e657220717565727920666f72206e6f6e65786973745f8201527f656e7420746f6b656e0000000000000000000000000000000000000000000000602082015250565b5f61520c6029836142c0565b9150615217826151b2565b604082019050919050565b5f6020820190508181035f83015261523981615200565b9050919050565b7f4552433732313a2062616c616e636520717565727920666f7220746865207a655f8201527f726f206164647265737300000000000000000000000000000000000000000000602082015250565b5f61529a602a836142c0565b91506152a582615240565b604082019050919050565b5f6020820190508181035f8301526152c78161528e565b9050919050565b7f4d7573742062652070726f706f736564206f776e6572000000000000000000005f82015250565b5f6153026016836142c0565b915061530d826152ce565b602082019050919050565b5f6020820190508181035f83015261532f816152f6565b9050919050565b7f4552433732313a20617070726f766520746f2063616c6c6572000000000000005f82015250565b5f61536a6019836142c0565b915061537582615336565b602082019050919050565b5f6020820190508181035f8301526153978161535e565b9050919050565b7f45524337323155524953746f726167653a2055524920717565727920666f72205f8201527f6e6f6e6578697374656e7420746f6b656e000000000000000000000000000000602082015250565b5f6153f86031836142c0565b91506154038261539e565b604082019050919050565b5f6020820190508181035f830152615425816153ec565b9050919050565b5f81905092915050565b5f615440826142b6565b61544a818561542c565b935061545a8185602086016142d0565b80840191505092915050565b5f6154718285615436565b915061547d8284615436565b91508190509392505050565b7f72657175657374206e6f7420666f756e640000000000000000000000000000005f82015250565b5f6154bd6011836142c0565b91506154c882615489565b602082019050919050565b5f6020820190508181035f8301526154ea816154b1565b9050919050565b5f819050919050565b615503816154f1565b82525050565b5f67ffffffffffffffff82169050919050565b61552581615509565b82525050565b5f61ffff82169050919050565b6155418161552b565b82525050565b5f63ffffffff82169050919050565b61555f81615547565b82525050565b5f60a0820190506155785f8301886154fa565b615585602083018761551c565b6155926040830186615538565b61559f6060830185615556565b6155ac6080830184615556565b9695505050505050565b5f815190506155c4816141f7565b92915050565b5f602082840312156155df576155de614133565b5b5f6155ec848285016155b6565b91505092915050565b5f6040820190506156085f830185614280565b6156156020830184615556565b9392505050565b5f60408201905061562f5f830185614280565b81810360208301526156418184614c46565b90509392505050565b7f4552433732313a206f70657261746f7220717565727920666f72206e6f6e65785f8201527f697374656e7420746f6b656e0000000000000000000000000000000000000000602082015250565b5f6156a4602c836142c0565b91506156af8261564a565b604082019050919050565b5f6020820190508181035f8301526156d181615698565b9050919050565b7f4552433732313a207472616e73666572206f6620746f6b656e207468617420695f8201527f73206e6f74206f776e0000000000000000000000000000000000000000000000602082015250565b5f6157326029836142c0565b915061573d826156d8565b604082019050919050565b5f6020820190508181035f83015261575f81615726565b9050919050565b7f4552433732313a207472616e7366657220746f20746865207a65726f206164645f8201527f7265737300000000000000000000000000000000000000000000000000000000602082015250565b5f6157c06024836142c0565b91506157cb82615766565b604082019050919050565b5f6020820190508181035f8301526157ed816157b4565b9050919050565b5f6157fe826141ee565b9150615809836141ee565b925082820390508181111561582157615820614f23565b5b92915050565b5f615831826141ee565b91507fffffffffffffffffffffffffffffffffffffffffffffffffffffffffffffffff820361586357615862614f23565b5b600182019050919050565b7f4552433732313a207472616e7366657220746f206e6f6e2045524337323152655f8201527f63656976657220696d706c656d656e7465720000000000000000000000000000602082015250565b5f6158c86032836142c0565b91506158d38261586e565b604082019050919050565b5f6020820190508181035f8301526158f5816158bc565b9050919050565b7f4552433732314d657461646174613a2055524920717565727920666f72206e6f5f8201527f6e6578697374656e7420746f6b656e0000000000000000000000000000000000602082015250565b5f615956602f836142c0565b9150615961826158fc565b604082019050919050565b5f6020820190508181035f8301526159838161594a565b9050919050565b7f4f6e6c792063616c6c61626c65206279206f776e6572000000000000000000005f82015250565b5f6159be6016836142c0565b91506159c98261598a565b602082019050919050565b5f6020820190508181035f8301526159eb816159b2565b9050919050565b7f43616e6e6f74207472616e7366657220746f2073656c660000000000000000005f82015250565b5f615a266017836142c0565b9150615a31826159f2565b602082019050919050565b5f6020820190508181035f830152615a5381615a1a565b9050919050565b5f81519050919050565b5f82825260208201905092915050565b5f615a7e82615a5a565b615a888185615a64565b9350615a988185602086016142d0565b615aa1816142f8565b840191505092915050565b5f608082019050615abf5f830187614390565b615acc6020830186614390565b615ad96040830185614280565b8181036060830152615aeb8184615a74565b905095945050505050565b5f81519050615b0481614166565b92915050565b5f60208284031215615b1f57615b1e614133565b5b5f615b2c84828501615af6565b91505092915050565b5f615b3f826141ee565b9150615b4a836141ee565b925082615b5a57615b59614f78565b5b828204905092915050565b7f4552433732313a206d696e7420746f20746865207a65726f20616464726573735f82015250565b5f615b996020836142c0565b9150615ba482615b65565b602082019050919050565b5f6020820190508181035f830152615bc681615b8d565b9050919050565b7f4552433732313a20746f6b656e20616c7265616479206d696e746564000000005f82015250565b5f615c01601c836142c0565b9150615c0c82615bcd565b602082019050919050565b5f6020820190508181035f830152615c2e81615bf5565b905091905056fea2646970667358221220a774759389082a53a045dcdaceb42ff6ff291a7806219af1ff1b5fc407014d7564736f6c63430008140033",
  "immutableReferences": {
    "192": [
      {
        "length": 32,
        "start": 4596
      },
      {
        "length": 32,
        "start": 4680
      }
    ]
  },
  "source": "// SPDX-License-Identifier: MIT\r\n// An example of a consumer contract that relies on a subscription for funding.\r\npragma solidity ^0.8.7;\r\n\r\nimport \"@chainlink/contracts/src/v0.8/interfaces/VRFCoordinatorV2Interface.sol\";\r\nimport \"@chainlink/contracts/src/v0.8/VRFConsumerBaseV2.sol\";\r\nimport \"@chainlink/contracts/src/v0.8/ConfirmedOwner.sol\";\r\nimport \"@openzeppelin/contracts/token/ERC721/extensions/ERC721URIStorage.sol\";\r\n\r\n/**\r\n * Request testnet LINK and ETH here: https://faucets.chain.link/\r\n * Find information on LINK Token Contracts and get the latest ETH and LINK faucets here: https://docs.chain.link/docs/link-token-contracts/\r\n */\r\n\r\n/**\r\n * THIS IS AN EXAMPLE CONTRACT THAT USES HARDCODED VALUES FOR CLARITY.\r\n * THIS IS AN EXAMPLE CONTRACT THAT USES UN-AUDITED CODE.\r\n * DO NOT USE THIS CODE IN PRODUCTION.\r\n */\r\n\r\ncontract Web3Football is VRFConsumerBaseV2, ConfirmedOwner, ERC721URIStorage {\r\n    uint8 public shoot_counter = 0;\r\n    uint8 public round_counter;\r\n    round_winner status = round_winner.MATCH_GOING_ON;\r\n    uint256[] public randomNumbers;\r\n\r\n    uint8 public team1Score = 0;\r\n    uint8 public team2Score = 0;\r\n    uint8 public roundNumber = 0;\r\n\r\n    function initialize_array() public {\r\n        randomNumbers[0] = 52592424;\r\n        randomNumbers[1] = 896276886;\r\n        randomNumbers[2] = 761876616;\r\n        randomNumbers[3] = 664664064;\r\n        randomNumbers[4] = 676866871;\r\n        randomNumbers[5] = 52592424;\r\n        randomNumbers[6] = 896276886;\r\n        randomNumbers[7] = 761876616;\r\n        randomNumbers[8] = 664664064;\r\n        randomNumbers[9] = 676866871;\r\n    }\r\n\r\n    uint8 public playerState;\r\n\r\n    function updatePlayerState(uint8 choice) public {\r\n        playerState = choice;\r\n    }\r\n\r\n    function roundNumberIncrease() public {\r\n        roundNumber = roundNumber + 1;\r\n    }\r\n\r\n    function setPlayerState(uint8 choice) public {\r\n        playerState = choice;\r\n    }\r\n\r\n    //stores the random number in the array\r\n\r\n    //toss\r\n\r\n    uint8 public tossChoice;\r\n    bool public winOrLoss;\r\n\r\n    function toss(uint8 _tossChoice) public {\r\n        tossChoice = _tossChoice;\r\n        if (randomNumbers[0] % 2 == tossChoice) {\r\n            winOrLoss = true;\r\n        } else {\r\n            winOrLoss = false;\r\n        }\r\n    }\r\n\r\n    //structure that stores the details\r\n    struct game_starting_details {\r\n        uint8 player1_level;\r\n        uint8 player2_level;\r\n        string wonToss;\r\n    }\r\n\r\n    enum shoot_winner {\r\n        GOALKEEPER,\r\n        STRIKER\r\n    }\r\n\r\n    enum round_winner {\r\n        TEAM1,\r\n        TEAM2,\r\n        MATCH_GOING_ON\r\n    }\r\n\r\n    enum team_shoot_winner {\r\n        team1,\r\n        team2\r\n    }\r\n\r\n    //For initiliazation\r\n    uint8[6] public team1Ratings;\r\n\r\n    function gameInitialization() public {\r\n        team1Ratings[0] = playerActiveCards[msg.sender][0].level;\r\n        team1Ratings[1] = playerActiveCards[msg.sender][1].level;\r\n        team1Ratings[2] = playerActiveCards[msg.sender][2].level;\r\n        team1Ratings[3] = playerActiveCards[msg.sender][3].level;\r\n        team1Ratings[4] = playerActiveCards[msg.sender][4].level;\r\n\r\n        team1Ratings[5] = playerActiveGKCard[msg.sender].level;\r\n    }\r\n\r\n    uint8[] team2Ratings = [2, 3, 2, 1, 1, 2];\r\n    //structure that has shoot details\r\n    struct shoot_detail {\r\n        uint8 shoot_no;\r\n        uint8 team1_lvl; //player is team 1\r\n        uint8 team2_lvl; //computer is team 2\r\n        bool select_interface; //checks if the interface has been selected or not\r\n        uint8 selected_interface; // stores the interface a =1, b = 2, c =3\r\n        bool shoot_completed; //checks if the shoot is completed or not\r\n        shoot_winner Winner_playerType;\r\n        team_shoot_winner ShootWinner_Team;\r\n    }\r\n\r\n    //structure that has round details\r\n    struct round_detail {\r\n        uint8 no_of_shoots;\r\n        uint8 team1_score;\r\n        uint8 team2_score;\r\n        bool round_complete;\r\n        round_winner Round_Winner;\r\n    }\r\n\r\n    shoot_detail[20] public Shoot_Detail;\r\n    round_detail[20] Round_Detail;\r\n\r\n    //function that selects which interface to play on\r\n    //return?\r\n    event testi(uint8 shoot_counter, uint8 Team1_Lvl, uint8 Team2_Lvl); //team 1 lvl is goalkeeper level and team 2 levelis striker level\r\n\r\n    function interface_Selection(\r\n        uint8 _shootNumber,\r\n        uint8 _playerState,\r\n        address _from\r\n    ) external view returns (uint8) {\r\n        uint8 goalkeeper;\r\n        uint8 striker;\r\n        uint8 index = (_shootNumber % 10) / 2;\r\n\r\n        if (_playerState == 2) {\r\n            striker = playerActiveCards[_from][index].level;\r\n            goalkeeper = team2Ratings[5];\r\n        } else {\r\n            striker = team2Ratings[index];\r\n            goalkeeper = playerActiveGKCard[_from].level;\r\n        }\r\n\r\n        if (striker > goalkeeper) {\r\n            return 3;\r\n        } else if (striker == goalkeeper) {\r\n            return 2;\r\n        } else {\r\n            return 1;\r\n        }\r\n    }\r\n\r\n    //this function will process the random number and check the result\r\n    function penalty_shoot(\r\n        uint8 penalty_interface,\r\n        uint8 user_choice,\r\n        uint8 _shootNumber\r\n    ) public view returns (bool res) {\r\n        //logic for interface 1\r\n        if (penalty_interface == 1) {\r\n            uint256 computer_choice = (randomNumbers[_shootNumber] % 2) + 1;\r\n\r\n            if (user_choice == computer_choice) {\r\n                return false;\r\n            } else {\r\n                return true;\r\n            }\r\n        }\r\n        //logic for interface 2\r\n        if (penalty_interface == 2) {\r\n            uint256 computer_choice = (randomNumbers[_shootNumber] % 4) + 1;\r\n            if (user_choice == computer_choice) {\r\n                return false;\r\n            } else {\r\n                return true;\r\n            }\r\n        }\r\n\r\n        //logic for interface 3\r\n        if (penalty_interface == 3) {\r\n            uint256 computer_choice = (randomNumbers[_shootNumber] % 8) + 1;\r\n            if (user_choice == computer_choice) {\r\n                return false;\r\n            } else {\r\n                return true;\r\n            }\r\n        }\r\n    }\r\n\r\n    //this function will check the round result by comparing score\r\n    function round_result_check(\r\n        uint8 _team1Score,\r\n        uint8 _team2Score,\r\n        uint8 shootNumber,\r\n        uint8 _playerState\r\n    ) external pure returns (uint8) {\r\n        uint8 curr_team1 = _team1Score;\r\n        uint8 curr_team2 = _team2Score;\r\n        if (shootNumber <= 10) {\r\n            uint8 potential_team1;\r\n            uint8 potential_team2;\r\n\r\n            if (shootNumber % 2 == 0) {\r\n                potential_team1 = 5 - ((shootNumber) / 2) + curr_team1;\r\n                potential_team2 = 5 - ((shootNumber) / 2) + curr_team2;\r\n            } else {\r\n                if (_playerState == 2) {\r\n                    potential_team1 = 5 - ((shootNumber) / 2) + curr_team1;\r\n                    potential_team2 = 5 - ((shootNumber) / 2) - 1 + curr_team2;\r\n                } else {\r\n                    potential_team1 = 5 - ((shootNumber) / 2) - 1 + curr_team1;\r\n                    potential_team2 = 5 - ((shootNumber) / 2) + curr_team2;\r\n                }\r\n            }\r\n\r\n            if (curr_team1 > potential_team2) {\r\n                return 1; //returning 1 means that team 1 has won(player)\r\n            } else if (curr_team2 > potential_team1) {\r\n                return 2; //returning 2 means that team 2 has won(computer)\r\n            } else {\r\n                return 0; //match is still going on\r\n            }\r\n        } else {\r\n            if (shootNumber % 2 == 0) {\r\n                if (curr_team1 > curr_team2) {\r\n                    return 1;\r\n                } else if (curr_team1 < curr_team2) {\r\n                    return 2;\r\n                } else {\r\n                    return 0;\r\n                }\r\n            } else {\r\n                return 0;\r\n            }\r\n        }\r\n    }\r\n\r\n    //this function updates the shoot_counter variable. It is done after every penaly shot taken.\r\n    function update_shoot_counter() public {\r\n        shoot_counter++;\r\n    }\r\n\r\n    //function that updates the round counter\r\n    function update_round_counter() public {\r\n        round_counter++;\r\n    }\r\n\r\n    function reset() public {\r\n        shoot_counter = 0;\r\n        roundNumber = 0;\r\n        team1Score = 0;\r\n        team2Score = 0;\r\n        playerState = 0;\r\n    }\r\n\r\n    function score_team1() external view returns (uint8) {\r\n        return Round_Detail[round_counter].team1_score;\r\n    }\r\n\r\n    function score_team2() external view returns (uint8) {\r\n        return Round_Detail[round_counter].team2_score;\r\n    }\r\n\r\n    //////////////////////////////////////////////////////////\r\n\r\n    event RequestSent(uint256 requestId, uint32 numWords);\r\n    event RequestFulfilled(uint256 requestId, uint256[] randomWords);\r\n\r\n    struct RequestStatus {\r\n        bool fulfilled; // whether the request has been successfully fulfilled\r\n        bool exists; // whether a requestId exists\r\n        uint256[] randomWords;\r\n        bool didWin;\r\n    }\r\n    mapping(uint256 => RequestStatus)\r\n        public s_requests; /* requestId --> requestStatus */\r\n    VRFCoordinatorV2Interface COORDINATOR;\r\n\r\n    // Your subscription ID.\r\n    uint64 s_subscriptionId;\r\n\r\n    // past requests Id.\r\n    uint256[] public requestIds;\r\n    uint256 public lastRequestId;\r\n\r\n    // The gas lane to use, which specifies the maximum gas price to bump to.\r\n    // For a list of available gas lanes on each network,\r\n    // see https://docs.chain.link/docs/vrf/v2/subscription/supported-networks/#configurations\r\n    bytes32 keyHash =\r\n        0x474e34a077df58807dbe9c96d3c009b23b3c6d0cce433e59bbf5b34f823bc56c;\r\n\r\n    // Depends on the number of requested values that you want sent to the\r\n    // fulfillRandomWords() function. Storing each word costs about 20,000 gas,\r\n    // so 100,000 is a safe default for this example contract. Test and adjust\r\n    // this limit based on the network that you select, the size of the request,\r\n    // and the processing of the callback request in the fulfillRandomWords()\r\n    // function.\r\n    uint32 callbackGasLimit = 1000000;\r\n\r\n    // The default is 3, but you can set this higher.\r\n    uint16 requestConfirmations = 3;\r\n\r\n    // For this example, retrieve 2 random values in one request.\r\n    // Cannot exceed VRFCoordinatorV2.MAX_NUM_WORDS.\r\n    uint32 numWords = 20;\r\n\r\n    /**\r\n     * HARDCODED FOR SEPOLIA\r\n     * COORDINATOR: 0x8103B0A8A00be2DDC778e6e7eaa21791Cd364625\r\n     */\r\n    constructor(\r\n        uint64 subscriptionId\r\n    )\r\n        VRFConsumerBaseV2(0x8103B0A8A00be2DDC778e6e7eaa21791Cd364625)\r\n        ConfirmedOwner(msg.sender)\r\n        ERC721(\"Web3Football\", \"FC\")\r\n    {\r\n        COORDINATOR = VRFCoordinatorV2Interface(\r\n            0x8103B0A8A00be2DDC778e6e7eaa21791Cd364625\r\n        );\r\n        s_subscriptionId = subscriptionId;\r\n\r\n        //nfts\r\n        Card memory p0 = Card(0, 3);\r\n        Card memory p1 = Card(1, 3);\r\n        Card memory p2 = Card(2, 3);\r\n        Card memory p3 = Card(3, 2);\r\n        Card memory p4 = Card(4, 2);\r\n        Card memory p5 = Card(5, 2);\r\n        Card memory p6 = Card(6, 2);\r\n        Card memory p7 = Card(7, 2);\r\n        Card memory p8 = Card(8, 1);\r\n        Card memory p9 = Card(9, 1);\r\n        Card memory p10 = Card(10, 1);\r\n\r\n        availableCards.push(p0);\r\n        availableCards.push(p1);\r\n        availableCards.push(p2);\r\n        availableCards.push(p3);\r\n        availableCards.push(p4);\r\n        availableCards.push(p5);\r\n        availableCards.push(p6);\r\n        availableCards.push(p7);\r\n        availableCards.push(p8);\r\n        availableCards.push(p9);\r\n        availableCards.push(p10);\r\n\r\n        Card memory g0 = Card(0, 3);\r\n        Card memory g1 = Card(1, 2);\r\n        Card memory g2 = Card(2, 2);\r\n        Card memory g3 = Card(3, 1);\r\n\r\n        availableGKCards.push(g0);\r\n        availableGKCards.push(g1);\r\n        availableGKCards.push(g2);\r\n        availableGKCards.push(g3);\r\n    }\r\n\r\n    // Assumes the subscription is funded sufficiently.\r\n    function requestRandomWords() external returns (uint256 requestId) {\r\n        // Will revert if subscription is not set and funded.\r\n        requestId = COORDINATOR.requestRandomWords(\r\n            keyHash,\r\n            s_subscriptionId,\r\n            requestConfirmations,\r\n            callbackGasLimit,\r\n            numWords\r\n        );\r\n        s_requests[requestId] = RequestStatus({\r\n            randomWords: new uint256[](0),\r\n            exists: true,\r\n            fulfilled: false,\r\n            didWin: true\r\n        });\r\n        requestIds.push(requestId);\r\n        lastRequestId = requestId;\r\n        emit RequestSent(requestId, numWords);\r\n        return requestId;\r\n    }\r\n\r\n    function fulfillRandomWords(\r\n        uint256 _requestId,\r\n        uint256[] memory _randomWords\r\n    ) internal override {\r\n        require(s_requests[_requestId].exists, \"request not found\");\r\n        s_requests[_requestId].fulfilled = true;\r\n        s_requests[_requestId].randomWords = _randomWords;\r\n        if (_randomWords[0] % 2 == 0) {\r\n            s_requests[_requestId].didWin = true;\r\n        }\r\n        randomNumbers = _randomWords;\r\n        emit RequestFulfilled(_requestId, _randomWords);\r\n    }\r\n\r\n    function getRequestStatus(\r\n        uint256 _requestId\r\n    )\r\n        external\r\n        view\r\n        returns (bool fulfilled, uint256[] memory randomWords, bool didWin)\r\n    {\r\n        require(s_requests[_requestId].exists, \"request not found\");\r\n        RequestStatus memory request = s_requests[_requestId];\r\n        return (request.fulfilled, request.randomWords, request.didWin);\r\n    }\r\n\r\n    //cards and points\r\n    function getAvailableCards() public view returns (Card[] memory) {\r\n        return availableCards;\r\n    }\r\n\r\n    function getAvailableGKCards() public view returns (Card[] memory) {\r\n        return availableGKCards;\r\n    }\r\n\r\n    uint256 COUNTER;\r\n\r\n    struct Card {\r\n        uint256 id;\r\n        uint8 level;\r\n    }\r\n\r\n    Card[] public cards;\r\n    Card[] public availableCards;\r\n    Card[] public availableGKCards;\r\n    mapping(address => Card[]) public playerActiveCards;\r\n    mapping(address => Card[]) public playerInactiveCards;\r\n    mapping(address => Card) public playerActiveGKCard;\r\n\r\n    //CreationOfNFT\r\n    function _createNft(uint8 _id, uint8 option) internal {\r\n        // _safeMint(_to,COUNTER);\r\n        // COUNTER++;\r\n        if (option == 1) {\r\n            playerActiveGKCard[msg.sender] = availableGKCards[_id];\r\n        } else if (option == 2) {\r\n            playerActiveCards[msg.sender].push(availableCards[_id]);\r\n        }\r\n        _safeMint(msg.sender, COUNTER);\r\n        COUNTER++;\r\n    }\r\n\r\n    function _buyNft(uint _id, uint option) internal {\r\n        playerPoints[msg.sender] -= 200;\r\n        if (option == 2) {\r\n            playerInactiveCards[msg.sender].push(availableCards[_id]);\r\n        }\r\n        _safeMint(msg.sender, COUNTER);\r\n        COUNTER++;\r\n    }\r\n\r\n    function buyNftCard(uint8 _id, uint8 option) public {\r\n        _buyNft(_id, option);\r\n    }\r\n\r\n    function createActiveCard(uint8 _id, uint8 option) public {\r\n        _createNft(_id, option);\r\n    }\r\n\r\n    //GettingNFT\r\n    function getPlayingCards(\r\n        address player\r\n    ) public view returns (Card[] memory) {\r\n        return playerActiveCards[player];\r\n    }\r\n\r\n    function getInactiveCards(\r\n        address player\r\n    ) public view returns (Card[] memory) {\r\n        return playerInactiveCards[player];\r\n    }\r\n\r\n    //playerpoints\r\n    mapping(address => bool) public joinStatus;\r\n\r\n    function getJoinStatus() public view returns (bool) {\r\n        return joinStatus[msg.sender];\r\n    }\r\n\r\n    mapping(address => uint256) public playerPoints;\r\n\r\n    function join() public {\r\n        joinStatus[msg.sender] = true;\r\n        playerPoints[msg.sender] = 200;\r\n        _createNft(0, 2);\r\n        _createNft(8, 2);\r\n        _createNft(10, 2);\r\n        _createNft(4, 2);\r\n        _createNft(6, 2);\r\n        _createNft(1, 1);\r\n    }\r\n\r\n    function wonPoints(address winner) public {\r\n        playerPoints[winner] += 20;\r\n    }\r\n}\r\n",
  "sourcePath": "C:\\Users\\Akash Sahu\\Desktop\\3\\Web3Football\\contracts\\Web3Football.sol",
  "compiler": {
    "name": "solc",
    "version": "0.8.20+commit.a1b79de6.Emscripten.clang"
  },
  "schemaVersion": "3.4.14",
  "updatedAt": "2023-06-11T20:02:15.364Z",
  "networkType": "ethereum",
  "devdoc": {
    "events": {
      "Approval(address,address,uint256)": {
        "details": "Emitted when `owner` enables `approved` to manage the `tokenId` token."
      },
      "ApprovalForAll(address,address,bool)": {
        "details": "Emitted when `owner` enables or disables (`approved`) `operator` to manage all of its assets."
      },
      "Transfer(address,address,uint256)": {
        "details": "Emitted when `tokenId` token is transferred from `from` to `to`."
      }
    },
    "kind": "dev",
    "methods": {
      "approve(address,uint256)": {
        "details": "See {IERC721-approve}."
      },
      "balanceOf(address)": {
        "details": "See {IERC721-balanceOf}."
      },
      "getApproved(uint256)": {
        "details": "See {IERC721-getApproved}."
      },
      "isApprovedForAll(address,address)": {
        "details": "See {IERC721-isApprovedForAll}."
      },
      "name()": {
        "details": "See {IERC721Metadata-name}."
      },
      "ownerOf(uint256)": {
        "details": "See {IERC721-ownerOf}."
      },
      "safeTransferFrom(address,address,uint256)": {
        "details": "See {IERC721-safeTransferFrom}."
      },
      "safeTransferFrom(address,address,uint256,bytes)": {
        "details": "See {IERC721-safeTransferFrom}."
      },
      "setApprovalForAll(address,bool)": {
        "details": "See {IERC721-setApprovalForAll}."
      },
      "supportsInterface(bytes4)": {
        "details": "See {IERC165-supportsInterface}."
      },
      "symbol()": {
        "details": "See {IERC721Metadata-symbol}."
      },
      "tokenURI(uint256)": {
        "details": "See {IERC721Metadata-tokenURI}."
      },
      "transferFrom(address,address,uint256)": {
        "details": "See {IERC721-transferFrom}."
      }
    },
    "version": 1
  },
  "userdoc": {
    "kind": "user",
    "methods": {
      "acceptOwnership()": {
        "notice": "Allows an ownership transfer to be completed by the recipient."
      },
      "constructor": {
        "notice": "HARDCODED FOR SEPOLIA COORDINATOR: 0x8103B0A8A00be2DDC778e6e7eaa21791Cd364625"
      },
      "owner()": {
        "notice": "Get the current owner"
      },
      "transferOwnership(address)": {
        "notice": "Allows an owner to begin transferring ownership to a new address, pending."
      }
    },
    "notice": "THIS IS AN EXAMPLE CONTRACT THAT USES HARDCODED VALUES FOR CLARITY. THIS IS AN EXAMPLE CONTRACT THAT USES UN-AUDITED CODE. DO NOT USE THIS CODE IN PRODUCTION.",
    "version": 1
  }
}